{
  "_format": "hh-sol-artifact-1",
  "contractName": "NFT",
  "sourceName": "contracts/NFT.sol",
  "abi": [
    {
      "inputs": [
        {
          "internalType": "address",
          "name": "marketplaceAddress",
          "type": "address"
        }
      ],
      "stateMutability": "nonpayable",
      "type": "constructor"
    },
    {
      "anonymous": false,
      "inputs": [
        {
          "indexed": true,
          "internalType": "address",
          "name": "owner",
          "type": "address"
        },
        {
          "indexed": true,
          "internalType": "address",
          "name": "approved",
          "type": "address"
        },
        {
          "indexed": true,
          "internalType": "uint256",
          "name": "tokenId",
          "type": "uint256"
        }
      ],
      "name": "Approval",
      "type": "event"
    },
    {
      "anonymous": false,
      "inputs": [
        {
          "indexed": true,
          "internalType": "address",
          "name": "owner",
          "type": "address"
        },
        {
          "indexed": true,
          "internalType": "address",
          "name": "operator",
          "type": "address"
        },
        {
          "indexed": false,
          "internalType": "bool",
          "name": "approved",
          "type": "bool"
        }
      ],
      "name": "ApprovalForAll",
      "type": "event"
    },
    {
      "anonymous": false,
      "inputs": [
        {
          "indexed": true,
          "internalType": "address",
          "name": "from",
          "type": "address"
        },
        {
          "indexed": true,
          "internalType": "address",
          "name": "to",
          "type": "address"
        },
        {
          "indexed": true,
          "internalType": "uint256",
          "name": "tokenId",
          "type": "uint256"
        }
      ],
      "name": "Transfer",
      "type": "event"
    },
    {
      "inputs": [
        {
          "internalType": "address",
          "name": "to",
          "type": "address"
        },
        {
          "internalType": "uint256",
          "name": "tokenId",
          "type": "uint256"
        }
      ],
      "name": "approve",
      "outputs": [],
      "stateMutability": "nonpayable",
      "type": "function"
    },
    {
      "inputs": [
        {
          "internalType": "address",
          "name": "owner",
          "type": "address"
        }
      ],
      "name": "balanceOf",
      "outputs": [
        {
          "internalType": "uint256",
          "name": "",
          "type": "uint256"
        }
      ],
      "stateMutability": "view",
      "type": "function"
    },
    {
      "inputs": [
        {
          "internalType": "string",
          "name": "tokenURI",
          "type": "string"
        }
      ],
      "name": "createToken",
      "outputs": [
        {
          "internalType": "uint256",
          "name": "",
          "type": "uint256"
        }
      ],
      "stateMutability": "nonpayable",
      "type": "function"
    },
    {
      "inputs": [
        {
          "internalType": "uint256",
          "name": "tokenId",
          "type": "uint256"
        }
      ],
      "name": "getApproved",
      "outputs": [
        {
          "internalType": "address",
          "name": "",
          "type": "address"
        }
      ],
      "stateMutability": "view",
      "type": "function"
    },
    {
      "inputs": [
        {
          "internalType": "address",
          "name": "owner",
          "type": "address"
        },
        {
          "internalType": "address",
          "name": "operator",
          "type": "address"
        }
      ],
      "name": "isApprovedForAll",
      "outputs": [
        {
          "internalType": "bool",
          "name": "",
          "type": "bool"
        }
      ],
      "stateMutability": "view",
      "type": "function"
    },
    {
      "inputs": [],
      "name": "name",
      "outputs": [
        {
          "internalType": "string",
          "name": "",
          "type": "string"
        }
      ],
      "stateMutability": "view",
      "type": "function"
    },
    {
      "inputs": [
        {
          "internalType": "uint256",
          "name": "tokenId",
          "type": "uint256"
        }
      ],
      "name": "ownerOf",
      "outputs": [
        {
          "internalType": "address",
          "name": "",
          "type": "address"
        }
      ],
      "stateMutability": "view",
      "type": "function"
    },
    {
      "inputs": [
        {
          "internalType": "address",
          "name": "from",
          "type": "address"
        },
        {
          "internalType": "address",
          "name": "to",
          "type": "address"
        },
        {
          "internalType": "uint256",
          "name": "tokenId",
          "type": "uint256"
        }
      ],
      "name": "safeTransferFrom",
      "outputs": [],
      "stateMutability": "nonpayable",
      "type": "function"
    },
    {
      "inputs": [
        {
          "internalType": "address",
          "name": "from",
          "type": "address"
        },
        {
          "internalType": "address",
          "name": "to",
          "type": "address"
        },
        {
          "internalType": "uint256",
          "name": "tokenId",
          "type": "uint256"
        },
        {
          "internalType": "bytes",
          "name": "data",
          "type": "bytes"
        }
      ],
      "name": "safeTransferFrom",
      "outputs": [],
      "stateMutability": "nonpayable",
      "type": "function"
    },
    {
      "inputs": [
        {
          "internalType": "address",
          "name": "operator",
          "type": "address"
        },
        {
          "internalType": "bool",
          "name": "approved",
          "type": "bool"
        }
      ],
      "name": "setApprovalForAll",
      "outputs": [],
      "stateMutability": "nonpayable",
      "type": "function"
    },
    {
      "inputs": [
        {
          "internalType": "bytes4",
          "name": "interfaceId",
          "type": "bytes4"
        }
      ],
      "name": "supportsInterface",
      "outputs": [
        {
          "internalType": "bool",
          "name": "",
          "type": "bool"
        }
      ],
      "stateMutability": "view",
      "type": "function"
    },
    {
      "inputs": [],
      "name": "symbol",
      "outputs": [
        {
          "internalType": "string",
          "name": "",
          "type": "string"
        }
      ],
      "stateMutability": "view",
      "type": "function"
    },
    {
      "inputs": [
        {
          "internalType": "uint256",
          "name": "tokenId",
          "type": "uint256"
        }
      ],
      "name": "tokenURI",
      "outputs": [
        {
          "internalType": "string",
          "name": "",
          "type": "string"
        }
      ],
      "stateMutability": "view",
      "type": "function"
    },
    {
      "inputs": [
        {
          "internalType": "address",
          "name": "from",
          "type": "address"
        },
        {
          "internalType": "address",
          "name": "to",
          "type": "address"
        },
        {
          "internalType": "uint256",
          "name": "tokenId",
          "type": "uint256"
        }
      ],
      "name": "transferFrom",
      "outputs": [],
      "stateMutability": "nonpayable",
      "type": "function"
    },
    {
      "inputs": [
        {
          "internalType": "address",
          "name": "from",
          "type": "address"
        },
        {
          "internalType": "address",
          "name": "to",
          "type": "address"
        },
        {
          "internalType": "uint256",
          "name": "tokenId",
          "type": "uint256"
        }
      ],
      "name": "transferToken",
      "outputs": [],
      "stateMutability": "nonpayable",
      "type": "function"
    }
  ],
  "bytecode": "0x60806040523480156200001157600080fd5b50604051620019c3380380620019c38339810160408190526200003491620000c2565b6040518060400160405280600f81526020016e313637b1a6bab9b4b1902a37b5b2b760891b8152506040518060400160405280600381526020016210935560ea1b815250816000908162000089919062000199565b50600162000098828262000199565b5050600880546001600160a01b0319166001600160a01b0393909316929092179091555062000265565b600060208284031215620000d557600080fd5b81516001600160a01b0381168114620000ed57600080fd5b9392505050565b634e487b7160e01b600052604160045260246000fd5b600181811c908216806200011f57607f821691505b6020821081036200014057634e487b7160e01b600052602260045260246000fd5b50919050565b601f8211156200019457600081815260208120601f850160051c810160208610156200016f5750805b601f850160051c820191505b8181101562000190578281556001016200017b565b5050505b505050565b81516001600160401b03811115620001b557620001b5620000f4565b620001cd81620001c684546200010a565b8462000146565b602080601f831160018114620002055760008415620001ec5750858301515b600019600386901b1c1916600185901b17855562000190565b600085815260208120601f198616915b82811015620002365788860151825594840194600190910190840162000215565b5085821015620002555787850151600019600388901b60f8161c191681555b5050505050600190811b01905550565b61174e80620002756000396000f3fe608060405234801561001057600080fd5b50600436106100f55760003560e01c80636352211e11610097578063b88d4fde11610066578063b88d4fde146101ff578063c87b56dd14610212578063e985e9c514610225578063f5537ede1461023857600080fd5b80636352211e146101be57806370a08231146101d157806395d89b41146101e4578063a22cb465146101ec57600080fd5b8063095ea7b3116100d3578063095ea7b31461016257806323b872dd1461017757806342842e0e1461018a57806345576f941461019d57600080fd5b806301ffc9a7146100fa57806306fdde0314610122578063081812fc14610137575b600080fd5b61010d610108366004611131565b61024b565b60405190151581526020015b60405180910390f35b61012a61029d565b604051610119919061119e565b61014a6101453660046111b1565b61032f565b6040516001600160a01b039091168152602001610119565b6101756101703660046111e6565b610356565b005b610175610185366004611210565b610470565b610175610198366004611210565b6104a1565b6101b06101ab3660046112d8565b6104bc565b604051908152602001610119565b61014a6101cc3660046111b1565b610504565b6101b06101df366004611321565b610564565b61012a6105ea565b6101756101fa36600461133c565b6105f9565b61017561020d366004611378565b610608565b61012a6102203660046111b1565b610640565b61010d6102333660046113f4565b610750565b610175610246366004611210565b61077e565b60006001600160e01b031982166380ac58cd60e01b148061027c57506001600160e01b03198216635b5e139f60e01b145b8061029757506301ffc9a760e01b6001600160e01b03198316145b92915050565b6060600080546102ac90611427565b80601f01602080910402602001604051908101604052809291908181526020018280546102d890611427565b80156103255780601f106102fa57610100808354040283529160200191610325565b820191906000526020600020905b81548152906001019060200180831161030857829003601f168201915b5050505050905090565b600061033a826107e7565b506000908152600460205260409020546001600160a01b031690565b600061036182610504565b9050806001600160a01b0316836001600160a01b0316036103d35760405162461bcd60e51b815260206004820152602160248201527f4552433732313a20617070726f76616c20746f2063757272656e74206f776e656044820152603960f91b60648201526084015b60405180910390fd5b336001600160a01b03821614806103ef57506103ef8133610750565b6104615760405162461bcd60e51b815260206004820152603d60248201527f4552433732313a20617070726f76652063616c6c6572206973206e6f7420746f60448201527f6b656e206f776e6572206f7220617070726f76656420666f7220616c6c00000060648201526084016103ca565b61046b8383610849565b505050565b61047a33826108b7565b6104965760405162461bcd60e51b81526004016103ca90611461565b61046b838383610915565b61046b83838360405180602001604052806000815250610608565b60006104cc600780546001019055565b60006104d760075490565b90506104e33382610a86565b6104ed8184610c1f565b600854610297906001600160a01b031660016105f9565b6000818152600260205260408120546001600160a01b0316806102975760405162461bcd60e51b8152602060048201526018602482015277115490cdcc8c4e881a5b9d985b1a59081d1bdad95b88125160421b60448201526064016103ca565b60006001600160a01b0382166105ce5760405162461bcd60e51b815260206004820152602960248201527f4552433732313a2061646472657373207a65726f206973206e6f7420612076616044820152683634b21037bbb732b960b91b60648201526084016103ca565b506001600160a01b031660009081526003602052604090205490565b6060600180546102ac90611427565b610604338383610cb2565b5050565b61061233836108b7565b61062e5760405162461bcd60e51b81526004016103ca90611461565b61063a84848484610d80565b50505050565b606061064b826107e7565b6000828152600660205260408120805461066490611427565b80601f016020809104026020016040519081016040528092919081815260200182805461069090611427565b80156106dd5780601f106106b2576101008083540402835291602001916106dd565b820191906000526020600020905b8154815290600101906020018083116106c057829003601f168201915b5050505050905060006106fb60408051602081019091526000815290565b9050805160000361070d575092915050565b81511561073f5780826040516020016107279291906114ae565b60405160208183030381529060405292505050919050565b61074884610db3565b949350505050565b6001600160a01b03918216600090815260056020908152604080832093909416825291909152205460ff1690565b826001600160a01b031661079182610504565b6001600160a01b0316146104965760405162461bcd60e51b815260206004820181905260248201527f46726f6d2061646472657373206d75737420626520746f6b656e206f776e657260448201526064016103ca565b6000818152600260205260409020546001600160a01b03166108465760405162461bcd60e51b8152602060048201526018602482015277115490cdcc8c4e881a5b9d985b1a59081d1bdad95b88125160421b60448201526064016103ca565b50565b600081815260046020526040902080546001600160a01b0319166001600160a01b038416908117909155819061087e82610504565b6001600160a01b03167f8c5be1e5ebec7d5bd14f71427d1e84f3dd0314c0f7b2291e5b200ac8c7c3b92560405160405180910390a45050565b6000806108c383610504565b9050806001600160a01b0316846001600160a01b031614806108ea57506108ea8185610750565b806107485750836001600160a01b03166109038461032f565b6001600160a01b031614949350505050565b826001600160a01b031661092882610504565b6001600160a01b03161461094e5760405162461bcd60e51b81526004016103ca906114dd565b6001600160a01b0382166109b05760405162461bcd60e51b8152602060048201526024808201527f4552433732313a207472616e7366657220746f20746865207a65726f206164646044820152637265737360e01b60648201526084016103ca565b6109bd8383836001610e27565b826001600160a01b03166109d082610504565b6001600160a01b0316146109f65760405162461bcd60e51b81526004016103ca906114dd565b600081815260046020908152604080832080546001600160a01b03199081169091556001600160a01b0387811680865260038552838620805460001901905590871680865283862080546001019055868652600290945282852080549092168417909155905184937fddf252ad1be2c89b69c2b068fc378daa952ba7f163c4a11628f55a4df523b3ef91a4505050565b6001600160a01b038216610adc5760405162461bcd60e51b815260206004820181905260248201527f4552433732313a206d696e7420746f20746865207a65726f206164647265737360448201526064016103ca565b6000818152600260205260409020546001600160a01b031615610b415760405162461bcd60e51b815260206004820152601c60248201527f4552433732313a20746f6b656e20616c7265616479206d696e7465640000000060448201526064016103ca565b610b4f600083836001610e27565b6000818152600260205260409020546001600160a01b031615610bb45760405162461bcd60e51b815260206004820152601c60248201527f4552433732313a20746f6b656e20616c7265616479206d696e7465640000000060448201526064016103ca565b6001600160a01b038216600081815260036020908152604080832080546001019055848352600290915280822080546001600160a01b0319168417905551839291907fddf252ad1be2c89b69c2b068fc378daa952ba7f163c4a11628f55a4df523b3ef908290a45050565b6000828152600260205260409020546001600160a01b0316610c9a5760405162461bcd60e51b815260206004820152602e60248201527f45524337323155524953746f726167653a2055524920736574206f66206e6f6e60448201526d32bc34b9ba32b73a103a37b5b2b760911b60648201526084016103ca565b600082815260066020526040902061046b8282611570565b816001600160a01b0316836001600160a01b031603610d135760405162461bcd60e51b815260206004820152601960248201527f4552433732313a20617070726f766520746f2063616c6c65720000000000000060448201526064016103ca565b6001600160a01b03838116600081815260056020908152604080832094871680845294825291829020805460ff191686151590811790915591519182527f17307eab39ab6107e8899845ad3d59bd9653f200f220920489ca2b5937696c31910160405180910390a3505050565b610d8b848484610915565b610d9784848484610eaf565b61063a5760405162461bcd60e51b81526004016103ca90611630565b6060610dbe826107e7565b6000610dd560408051602081019091526000815290565b90506000815111610df55760405180602001604052806000815250610e20565b80610dff84610fb0565b604051602001610e109291906114ae565b6040516020818303038152906040525b9392505050565b600181111561063a576001600160a01b03841615610e6d576001600160a01b03841660009081526003602052604081208054839290610e67908490611698565b90915550505b6001600160a01b0383161561063a576001600160a01b03831660009081526003602052604081208054839290610ea49084906116ab565b909155505050505050565b60006001600160a01b0384163b15610fa557604051630a85bd0160e11b81526001600160a01b0385169063150b7a0290610ef39033908990889088906004016116be565b6020604051808303816000875af1925050508015610f2e575060408051601f3d908101601f19168201909252610f2b918101906116fb565b60015b610f8b573d808015610f5c576040519150601f19603f3d011682016040523d82523d6000602084013e610f61565b606091505b508051600003610f835760405162461bcd60e51b81526004016103ca90611630565b805181602001fd5b6001600160e01b031916630a85bd0160e11b149050610748565b506001949350505050565b60606000610fbd83611043565b600101905060008167ffffffffffffffff811115610fdd57610fdd61124c565b6040519080825280601f01601f191660200182016040528015611007576020820181803683370190505b5090508181016020015b600019016f181899199a1a9b1b9c1cb0b131b232b360811b600a86061a8153600a850494508461101157509392505050565b60008072184f03e93ff9f4daa797ed6e38ed64bf6a1f0160401b83106110825772184f03e93ff9f4daa797ed6e38ed64bf6a1f0160401b830492506040015b6d04ee2d6d415b85acef810000000083106110ae576d04ee2d6d415b85acef8100000000830492506020015b662386f26fc1000083106110cc57662386f26fc10000830492506010015b6305f5e10083106110e4576305f5e100830492506008015b61271083106110f857612710830492506004015b6064831061110a576064830492506002015b600a83106102975760010192915050565b6001600160e01b03198116811461084657600080fd5b60006020828403121561114357600080fd5b8135610e208161111b565b60005b83811015611169578181015183820152602001611151565b50506000910152565b6000815180845261118a81602086016020860161114e565b601f01601f19169290920160200192915050565b602081526000610e206020830184611172565b6000602082840312156111c357600080fd5b5035919050565b80356001600160a01b03811681146111e157600080fd5b919050565b600080604083850312156111f957600080fd5b611202836111ca565b946020939093013593505050565b60008060006060848603121561122557600080fd5b61122e846111ca565b925061123c602085016111ca565b9150604084013590509250925092565b634e487b7160e01b600052604160045260246000fd5b600067ffffffffffffffff8084111561127d5761127d61124c565b604051601f8501601f19908116603f011681019082821181831017156112a5576112a561124c565b816040528093508581528686860111156112be57600080fd5b858560208301376000602087830101525050509392505050565b6000602082840312156112ea57600080fd5b813567ffffffffffffffff81111561130157600080fd5b8201601f8101841361131257600080fd5b61074884823560208401611262565b60006020828403121561133357600080fd5b610e20826111ca565b6000806040838503121561134f57600080fd5b611358836111ca565b91506020830135801515811461136d57600080fd5b809150509250929050565b6000806000806080858703121561138e57600080fd5b611397856111ca565b93506113a5602086016111ca565b925060408501359150606085013567ffffffffffffffff8111156113c857600080fd5b8501601f810187136113d957600080fd5b6113e887823560208401611262565b91505092959194509250565b6000806040838503121561140757600080fd5b611410836111ca565b915061141e602084016111ca565b90509250929050565b600181811c9082168061143b57607f821691505b60208210810361145b57634e487b7160e01b600052602260045260246000fd5b50919050565b6020808252602d908201527f4552433732313a2063616c6c6572206973206e6f7420746f6b656e206f776e6560408201526c1c881bdc88185c1c1c9bdd9959609a1b606082015260800190565b600083516114c081846020880161114e565b8351908301906114d481836020880161114e565b01949350505050565b60208082526025908201527f4552433732313a207472616e736665722066726f6d20696e636f72726563742060408201526437bbb732b960d91b606082015260800190565b601f82111561046b57600081815260208120601f850160051c810160208610156115495750805b601f850160051c820191505b8181101561156857828155600101611555565b505050505050565b815167ffffffffffffffff81111561158a5761158a61124c565b61159e816115988454611427565b84611522565b602080601f8311600181146115d357600084156115bb5750858301515b600019600386901b1c1916600185901b178555611568565b600085815260208120601f198616915b82811015611602578886015182559484019460019091019084016115e3565b50858210156116205787850151600019600388901b60f8161c191681555b5050505050600190811b01905550565b60208082526032908201527f4552433732313a207472616e7366657220746f206e6f6e20455243373231526560408201527131b2b4bb32b91034b6b83632b6b2b73a32b960711b606082015260800190565b634e487b7160e01b600052601160045260246000fd5b8181038181111561029757610297611682565b8082018082111561029757610297611682565b6001600160a01b03858116825284166020820152604081018390526080606082018190526000906116f190830184611172565b9695505050505050565b60006020828403121561170d57600080fd5b8151610e208161111b56fea264697066735822122091ca101b5e1daceadeb9605111f76efdde042bda7c714635efc18e1a92d00ad064736f6c63430008110033",
  "linkReferences": {},
  "deployedLinkReferences": {}
}