{
  "_format": "hh-sol-artifact-1",
  "contractName": "NFT",
  "sourceName": "contracts/NFT.sol",
  "abi": [
    {
      "inputs": [
        {
          "internalType": "address",
          "name": "marketplaceAddress",
          "type": "address"
        }
      ],
      "stateMutability": "nonpayable",
      "type": "constructor"
    },
    {
      "anonymous": false,
      "inputs": [
        {
          "indexed": true,
          "internalType": "address",
          "name": "owner",
          "type": "address"
        },
        {
          "indexed": true,
          "internalType": "address",
          "name": "approved",
          "type": "address"
        },
        {
          "indexed": true,
          "internalType": "uint256",
          "name": "tokenId",
          "type": "uint256"
        }
      ],
      "name": "Approval",
      "type": "event"
    },
    {
      "anonymous": false,
      "inputs": [
        {
          "indexed": true,
          "internalType": "address",
          "name": "owner",
          "type": "address"
        },
        {
          "indexed": true,
          "internalType": "address",
          "name": "operator",
          "type": "address"
        },
        {
          "indexed": false,
          "internalType": "bool",
          "name": "approved",
          "type": "bool"
        }
      ],
      "name": "ApprovalForAll",
      "type": "event"
    },
    {
      "anonymous": false,
      "inputs": [
        {
          "indexed": true,
          "internalType": "address",
          "name": "from",
          "type": "address"
        },
        {
          "indexed": true,
          "internalType": "address",
          "name": "to",
          "type": "address"
        },
        {
          "indexed": true,
          "internalType": "uint256",
          "name": "tokenId",
          "type": "uint256"
        }
      ],
      "name": "Transfer",
      "type": "event"
    },
    {
      "inputs": [
        {
          "internalType": "address",
          "name": "to",
          "type": "address"
        },
        {
          "internalType": "uint256",
          "name": "tokenId",
          "type": "uint256"
        }
      ],
      "name": "approve",
      "outputs": [],
      "stateMutability": "nonpayable",
      "type": "function"
    },
    {
      "inputs": [
        {
          "internalType": "address",
          "name": "owner",
          "type": "address"
        }
      ],
      "name": "balanceOf",
      "outputs": [
        {
          "internalType": "uint256",
          "name": "",
          "type": "uint256"
        }
      ],
      "stateMutability": "view",
      "type": "function"
    },
    {
      "inputs": [],
      "name": "createToken",
      "outputs": [
        {
          "internalType": "uint256",
          "name": "",
          "type": "uint256"
        }
      ],
      "stateMutability": "nonpayable",
      "type": "function"
    },
    {
      "inputs": [
        {
          "internalType": "uint256",
          "name": "tokenId",
          "type": "uint256"
        }
      ],
      "name": "getApproved",
      "outputs": [
        {
          "internalType": "address",
          "name": "",
          "type": "address"
        }
      ],
      "stateMutability": "view",
      "type": "function"
    },
    {
      "inputs": [
        {
          "internalType": "address",
          "name": "owner",
          "type": "address"
        },
        {
          "internalType": "address",
          "name": "operator",
          "type": "address"
        }
      ],
      "name": "isApprovedForAll",
      "outputs": [
        {
          "internalType": "bool",
          "name": "",
          "type": "bool"
        }
      ],
      "stateMutability": "view",
      "type": "function"
    },
    {
      "inputs": [],
      "name": "name",
      "outputs": [
        {
          "internalType": "string",
          "name": "",
          "type": "string"
        }
      ],
      "stateMutability": "view",
      "type": "function"
    },
    {
      "inputs": [
        {
          "internalType": "uint256",
          "name": "tokenId",
          "type": "uint256"
        }
      ],
      "name": "ownerOf",
      "outputs": [
        {
          "internalType": "address",
          "name": "",
          "type": "address"
        }
      ],
      "stateMutability": "view",
      "type": "function"
    },
    {
      "inputs": [
        {
          "internalType": "address",
          "name": "from",
          "type": "address"
        },
        {
          "internalType": "address",
          "name": "to",
          "type": "address"
        },
        {
          "internalType": "uint256",
          "name": "tokenId",
          "type": "uint256"
        }
      ],
      "name": "safeTransferFrom",
      "outputs": [],
      "stateMutability": "nonpayable",
      "type": "function"
    },
    {
      "inputs": [
        {
          "internalType": "address",
          "name": "from",
          "type": "address"
        },
        {
          "internalType": "address",
          "name": "to",
          "type": "address"
        },
        {
          "internalType": "uint256",
          "name": "tokenId",
          "type": "uint256"
        },
        {
          "internalType": "bytes",
          "name": "data",
          "type": "bytes"
        }
      ],
      "name": "safeTransferFrom",
      "outputs": [],
      "stateMutability": "nonpayable",
      "type": "function"
    },
    {
      "inputs": [
        {
          "internalType": "address",
          "name": "operator",
          "type": "address"
        },
        {
          "internalType": "bool",
          "name": "approved",
          "type": "bool"
        }
      ],
      "name": "setApprovalForAll",
      "outputs": [],
      "stateMutability": "nonpayable",
      "type": "function"
    },
    {
      "inputs": [
        {
          "internalType": "bytes4",
          "name": "interfaceId",
          "type": "bytes4"
        }
      ],
      "name": "supportsInterface",
      "outputs": [
        {
          "internalType": "bool",
          "name": "",
          "type": "bool"
        }
      ],
      "stateMutability": "view",
      "type": "function"
    },
    {
      "inputs": [],
      "name": "symbol",
      "outputs": [
        {
          "internalType": "string",
          "name": "",
          "type": "string"
        }
      ],
      "stateMutability": "view",
      "type": "function"
    },
    {
      "inputs": [
        {
          "internalType": "uint256",
          "name": "tokenId",
          "type": "uint256"
        }
      ],
      "name": "tokenURI",
      "outputs": [
        {
          "internalType": "string",
          "name": "",
          "type": "string"
        }
      ],
      "stateMutability": "view",
      "type": "function"
    },
    {
      "inputs": [
        {
          "internalType": "address",
          "name": "from",
          "type": "address"
        },
        {
          "internalType": "address",
          "name": "to",
          "type": "address"
        },
        {
          "internalType": "uint256",
          "name": "tokenId",
          "type": "uint256"
        }
      ],
      "name": "transferFrom",
      "outputs": [],
      "stateMutability": "nonpayable",
      "type": "function"
    },
    {
      "inputs": [
        {
          "internalType": "address",
          "name": "from",
          "type": "address"
        },
        {
          "internalType": "address",
          "name": "to",
          "type": "address"
        },
        {
          "internalType": "uint256",
          "name": "tokenId",
          "type": "uint256"
        }
      ],
      "name": "transferToken",
      "outputs": [],
      "stateMutability": "nonpayable",
      "type": "function"
    }
  ],
  "bytecode": "0x60806040523480156200001157600080fd5b50604051620017ae380380620017ae8339810160408190526200003491620000c2565b6040518060400160405280600f81526020016e313637b1a6bab9b4b1902a37b5b2b760891b8152506040518060400160405280600381526020016210935560ea1b815250816000908162000089919062000199565b50600162000098828262000199565b5050600880546001600160a01b0319166001600160a01b0393909316929092179091555062000265565b600060208284031215620000d557600080fd5b81516001600160a01b0381168114620000ed57600080fd5b9392505050565b634e487b7160e01b600052604160045260246000fd5b600181811c908216806200011f57607f821691505b6020821081036200014057634e487b7160e01b600052602260045260246000fd5b50919050565b601f8211156200019457600081815260208120601f850160051c810160208610156200016f5750805b601f850160051c820191505b8181101562000190578281556001016200017b565b5050505b505050565b81516001600160401b03811115620001b557620001b5620000f4565b620001cd81620001c684546200010a565b8462000146565b602080601f831160018114620002055760008415620001ec5750858301515b600019600386901b1c1916600185901b17855562000190565b600085815260208120601f198616915b82811015620002365788860151825594840194600190910190840162000215565b5085821015620002555787850151600019600388901b60f8161c191681555b5050505050600190811b01905550565b61153980620002756000396000f3fe608060405234801561001057600080fd5b50600436106100f55760003560e01c806370a0823111610097578063b88d4fde11610066578063b88d4fde146101f4578063c87b56dd14610207578063e985e9c51461021a578063f5537ede1461022d57600080fd5b806370a08231146101b057806395d89b41146101d15780639cbf9e36146101d9578063a22cb465146101e157600080fd5b8063095ea7b3116100d3578063095ea7b31461016257806323b872dd1461017757806342842e0e1461018a5780636352211e1461019d57600080fd5b806301ffc9a7146100fa57806306fdde0314610122578063081812fc14610137575b600080fd5b61010d61010836600461108e565b610240565b60405190151581526020015b60405180910390f35b61012a610292565b60405161011991906110fb565b61014a61014536600461110e565b610324565b6040516001600160a01b039091168152602001610119565b61017561017036600461113e565b61034b565b005b610175610185366004611168565b610465565b610175610198366004611168565b610496565b61014a6101ab36600461110e565b6104b1565b6101c36101be3660046111a4565b610511565b604051908152602001610119565b61012a610597565b6101c36105a6565b6101756101ef3660046111bf565b6105e9565b610175610202366004611211565b6105f8565b61012a61021536600461110e565b610630565b61010d6102283660046112ed565b610740565b61017561023b366004611168565b61076e565b60006001600160e01b031982166380ac58cd60e01b148061027157506001600160e01b03198216635b5e139f60e01b145b8061028c57506301ffc9a760e01b6001600160e01b03198316145b92915050565b6060600080546102a190611320565b80601f01602080910402602001604051908101604052809291908181526020018280546102cd90611320565b801561031a5780601f106102ef5761010080835404028352916020019161031a565b820191906000526020600020905b8154815290600101906020018083116102fd57829003601f168201915b5050505050905090565b600061032f826107d7565b506000908152600460205260409020546001600160a01b031690565b6000610356826104b1565b9050806001600160a01b0316836001600160a01b0316036103c85760405162461bcd60e51b815260206004820152602160248201527f4552433732313a20617070726f76616c20746f2063757272656e74206f776e656044820152603960f91b60648201526084015b60405180910390fd5b336001600160a01b03821614806103e457506103e48133610740565b6104565760405162461bcd60e51b815260206004820152603d60248201527f4552433732313a20617070726f76652063616c6c6572206973206e6f7420746f60448201527f6b656e206f776e6572206f7220617070726f76656420666f7220616c6c00000060648201526084016103bf565b6104608383610839565b505050565b61046f33826108a7565b61048b5760405162461bcd60e51b81526004016103bf9061135a565b610460838383610905565b610460838383604051806020016040528060008152506105f8565b6000818152600260205260408120546001600160a01b03168061028c5760405162461bcd60e51b8152602060048201526018602482015277115490cdcc8c4e881a5b9d985b1a59081d1bdad95b88125160421b60448201526064016103bf565b60006001600160a01b03821661057b5760405162461bcd60e51b815260206004820152602960248201527f4552433732313a2061646472657373207a65726f206973206e6f7420612076616044820152683634b21037bbb732b960b91b60648201526084016103bf565b506001600160a01b031660009081526003602052604090205490565b6060600180546102a190611320565b60006105b6600780546001019055565b60006105c160075490565b90506105cd3382610a76565b6008546105e4906001600160a01b031660016105e9565b919050565b6105f4338383610c0f565b5050565b61060233836108a7565b61061e5760405162461bcd60e51b81526004016103bf9061135a565b61062a84848484610cdd565b50505050565b606061063b826107d7565b6000828152600660205260408120805461065490611320565b80601f016020809104026020016040519081016040528092919081815260200182805461068090611320565b80156106cd5780601f106106a2576101008083540402835291602001916106cd565b820191906000526020600020905b8154815290600101906020018083116106b057829003601f168201915b5050505050905060006106eb60408051602081019091526000815290565b905080516000036106fd575092915050565b81511561072f5780826040516020016107179291906113a7565b60405160208183030381529060405292505050919050565b61073884610d10565b949350505050565b6001600160a01b03918216600090815260056020908152604080832093909416825291909152205460ff1690565b826001600160a01b0316610781826104b1565b6001600160a01b03161461048b5760405162461bcd60e51b815260206004820181905260248201527f46726f6d2061646472657373206d75737420626520746f6b656e206f776e657260448201526064016103bf565b6000818152600260205260409020546001600160a01b03166108365760405162461bcd60e51b8152602060048201526018602482015277115490cdcc8c4e881a5b9d985b1a59081d1bdad95b88125160421b60448201526064016103bf565b50565b600081815260046020526040902080546001600160a01b0319166001600160a01b038416908117909155819061086e826104b1565b6001600160a01b03167f8c5be1e5ebec7d5bd14f71427d1e84f3dd0314c0f7b2291e5b200ac8c7c3b92560405160405180910390a45050565b6000806108b3836104b1565b9050806001600160a01b0316846001600160a01b031614806108da57506108da8185610740565b806107385750836001600160a01b03166108f384610324565b6001600160a01b031614949350505050565b826001600160a01b0316610918826104b1565b6001600160a01b03161461093e5760405162461bcd60e51b81526004016103bf906113d6565b6001600160a01b0382166109a05760405162461bcd60e51b8152602060048201526024808201527f4552433732313a207472616e7366657220746f20746865207a65726f206164646044820152637265737360e01b60648201526084016103bf565b6109ad8383836001610d84565b826001600160a01b03166109c0826104b1565b6001600160a01b0316146109e65760405162461bcd60e51b81526004016103bf906113d6565b600081815260046020908152604080832080546001600160a01b03199081169091556001600160a01b0387811680865260038552838620805460001901905590871680865283862080546001019055868652600290945282852080549092168417909155905184937fddf252ad1be2c89b69c2b068fc378daa952ba7f163c4a11628f55a4df523b3ef91a4505050565b6001600160a01b038216610acc5760405162461bcd60e51b815260206004820181905260248201527f4552433732313a206d696e7420746f20746865207a65726f206164647265737360448201526064016103bf565b6000818152600260205260409020546001600160a01b031615610b315760405162461bcd60e51b815260206004820152601c60248201527f4552433732313a20746f6b656e20616c7265616479206d696e7465640000000060448201526064016103bf565b610b3f600083836001610d84565b6000818152600260205260409020546001600160a01b031615610ba45760405162461bcd60e51b815260206004820152601c60248201527f4552433732313a20746f6b656e20616c7265616479206d696e7465640000000060448201526064016103bf565b6001600160a01b038216600081815260036020908152604080832080546001019055848352600290915280822080546001600160a01b0319168417905551839291907fddf252ad1be2c89b69c2b068fc378daa952ba7f163c4a11628f55a4df523b3ef908290a45050565b816001600160a01b0316836001600160a01b031603610c705760405162461bcd60e51b815260206004820152601960248201527f4552433732313a20617070726f766520746f2063616c6c65720000000000000060448201526064016103bf565b6001600160a01b03838116600081815260056020908152604080832094871680845294825291829020805460ff191686151590811790915591519182527f17307eab39ab6107e8899845ad3d59bd9653f200f220920489ca2b5937696c31910160405180910390a3505050565b610ce8848484610905565b610cf484848484610e0c565b61062a5760405162461bcd60e51b81526004016103bf9061141b565b6060610d1b826107d7565b6000610d3260408051602081019091526000815290565b90506000815111610d525760405180602001604052806000815250610d7d565b80610d5c84610f0d565b604051602001610d6d9291906113a7565b6040516020818303038152906040525b9392505050565b600181111561062a576001600160a01b03841615610dca576001600160a01b03841660009081526003602052604081208054839290610dc4908490611483565b90915550505b6001600160a01b0383161561062a576001600160a01b03831660009081526003602052604081208054839290610e01908490611496565b909155505050505050565b60006001600160a01b0384163b15610f0257604051630a85bd0160e11b81526001600160a01b0385169063150b7a0290610e509033908990889088906004016114a9565b6020604051808303816000875af1925050508015610e8b575060408051601f3d908101601f19168201909252610e88918101906114e6565b60015b610ee8573d808015610eb9576040519150601f19603f3d011682016040523d82523d6000602084013e610ebe565b606091505b508051600003610ee05760405162461bcd60e51b81526004016103bf9061141b565b805181602001fd5b6001600160e01b031916630a85bd0160e11b149050610738565b506001949350505050565b60606000610f1a83610fa0565b600101905060008167ffffffffffffffff811115610f3a57610f3a6111fb565b6040519080825280601f01601f191660200182016040528015610f64576020820181803683370190505b5090508181016020015b600019016f181899199a1a9b1b9c1cb0b131b232b360811b600a86061a8153600a8504945084610f6e57509392505050565b60008072184f03e93ff9f4daa797ed6e38ed64bf6a1f0160401b8310610fdf5772184f03e93ff9f4daa797ed6e38ed64bf6a1f0160401b830492506040015b6d04ee2d6d415b85acef8100000000831061100b576d04ee2d6d415b85acef8100000000830492506020015b662386f26fc10000831061102957662386f26fc10000830492506010015b6305f5e1008310611041576305f5e100830492506008015b612710831061105557612710830492506004015b60648310611067576064830492506002015b600a831061028c5760010192915050565b6001600160e01b03198116811461083657600080fd5b6000602082840312156110a057600080fd5b8135610d7d81611078565b60005b838110156110c65781810151838201526020016110ae565b50506000910152565b600081518084526110e78160208601602086016110ab565b601f01601f19169290920160200192915050565b602081526000610d7d60208301846110cf565b60006020828403121561112057600080fd5b5035919050565b80356001600160a01b03811681146105e457600080fd5b6000806040838503121561115157600080fd5b61115a83611127565b946020939093013593505050565b60008060006060848603121561117d57600080fd5b61118684611127565b925061119460208501611127565b9150604084013590509250925092565b6000602082840312156111b657600080fd5b610d7d82611127565b600080604083850312156111d257600080fd5b6111db83611127565b9150602083013580151581146111f057600080fd5b809150509250929050565b634e487b7160e01b600052604160045260246000fd5b6000806000806080858703121561122757600080fd5b61123085611127565b935061123e60208601611127565b925060408501359150606085013567ffffffffffffffff8082111561126257600080fd5b818701915087601f83011261127657600080fd5b813581811115611288576112886111fb565b604051601f8201601f19908116603f011681019083821181831017156112b0576112b06111fb565b816040528281528a60208487010111156112c957600080fd5b82602086016020830137600060208483010152809550505050505092959194509250565b6000806040838503121561130057600080fd5b61130983611127565b915061131760208401611127565b90509250929050565b600181811c9082168061133457607f821691505b60208210810361135457634e487b7160e01b600052602260045260246000fd5b50919050565b6020808252602d908201527f4552433732313a2063616c6c6572206973206e6f7420746f6b656e206f776e6560408201526c1c881bdc88185c1c1c9bdd9959609a1b606082015260800190565b600083516113b98184602088016110ab565b8351908301906113cd8183602088016110ab565b01949350505050565b60208082526025908201527f4552433732313a207472616e736665722066726f6d20696e636f72726563742060408201526437bbb732b960d91b606082015260800190565b60208082526032908201527f4552433732313a207472616e7366657220746f206e6f6e20455243373231526560408201527131b2b4bb32b91034b6b83632b6b2b73a32b960711b606082015260800190565b634e487b7160e01b600052601160045260246000fd5b8181038181111561028c5761028c61146d565b8082018082111561028c5761028c61146d565b6001600160a01b03858116825284166020820152604081018390526080606082018190526000906114dc908301846110cf565b9695505050505050565b6000602082840312156114f857600080fd5b8151610d7d8161107856fea2646970667358221220ccc95e13e8fe16376555873b00b1f164cd33c110caeeff4e6754822925f3197964736f6c63430008110033",
  "linkReferences": {},
  "deployedLinkReferences": {}
}