{
  "_format": "hh-sol-artifact-1",
  "contractName": "MusicMarketPlace",
  "sourceName": "contracts/MusicMarketPlace.sol",
  "abi": [
    {
      "inputs": [],
      "stateMutability": "nonpayable",
      "type": "constructor"
    },
    {
      "anonymous": false,
      "inputs": [
        {
          "indexed": true,
          "internalType": "address",
          "name": "owner",
          "type": "address"
        },
        {
          "indexed": true,
          "internalType": "address",
          "name": "approved",
          "type": "address"
        },
        {
          "indexed": true,
          "internalType": "uint256",
          "name": "tokenId",
          "type": "uint256"
        }
      ],
      "name": "Approval",
      "type": "event"
    },
    {
      "anonymous": false,
      "inputs": [
        {
          "indexed": true,
          "internalType": "address",
          "name": "owner",
          "type": "address"
        },
        {
          "indexed": true,
          "internalType": "address",
          "name": "operator",
          "type": "address"
        },
        {
          "indexed": false,
          "internalType": "bool",
          "name": "approved",
          "type": "bool"
        }
      ],
      "name": "ApprovalForAll",
      "type": "event"
    },
    {
      "anonymous": false,
      "inputs": [
        {
          "indexed": true,
          "internalType": "uint256",
          "name": "tokenId",
          "type": "uint256"
        },
        {
          "indexed": false,
          "internalType": "address",
          "name": "seller",
          "type": "address"
        },
        {
          "indexed": false,
          "internalType": "address",
          "name": "owner",
          "type": "address"
        },
        {
          "indexed": false,
          "internalType": "uint256",
          "name": "price",
          "type": "uint256"
        },
        {
          "indexed": false,
          "internalType": "bool",
          "name": "sold",
          "type": "bool"
        }
      ],
      "name": "MarketItemCreated",
      "type": "event"
    },
    {
      "anonymous": false,
      "inputs": [
        {
          "indexed": true,
          "internalType": "address",
          "name": "from",
          "type": "address"
        },
        {
          "indexed": true,
          "internalType": "address",
          "name": "to",
          "type": "address"
        },
        {
          "indexed": true,
          "internalType": "uint256",
          "name": "tokenId",
          "type": "uint256"
        }
      ],
      "name": "Transfer",
      "type": "event"
    },
    {
      "inputs": [
        {
          "internalType": "address",
          "name": "to",
          "type": "address"
        },
        {
          "internalType": "uint256",
          "name": "tokenId",
          "type": "uint256"
        }
      ],
      "name": "approve",
      "outputs": [],
      "stateMutability": "nonpayable",
      "type": "function"
    },
    {
      "inputs": [
        {
          "internalType": "address",
          "name": "owner",
          "type": "address"
        }
      ],
      "name": "balanceOf",
      "outputs": [
        {
          "internalType": "uint256",
          "name": "",
          "type": "uint256"
        }
      ],
      "stateMutability": "view",
      "type": "function"
    },
    {
      "inputs": [
        {
          "internalType": "uint256",
          "name": "tokenId",
          "type": "uint256"
        }
      ],
      "name": "createMarketSale",
      "outputs": [],
      "stateMutability": "payable",
      "type": "function"
    },
    {
      "inputs": [
        {
          "internalType": "string",
          "name": "tokenURI",
          "type": "string"
        },
        {
          "internalType": "uint256",
          "name": "price",
          "type": "uint256"
        }
      ],
      "name": "createToken",
      "outputs": [
        {
          "internalType": "uint256",
          "name": "",
          "type": "uint256"
        }
      ],
      "stateMutability": "payable",
      "type": "function"
    },
    {
      "inputs": [],
      "name": "fetchItemsListed",
      "outputs": [
        {
          "components": [
            {
              "internalType": "uint256",
              "name": "tokenId",
              "type": "uint256"
            },
            {
              "internalType": "address payable",
              "name": "seller",
              "type": "address"
            },
            {
              "internalType": "address payable",
              "name": "owner",
              "type": "address"
            },
            {
              "internalType": "uint256",
              "name": "price",
              "type": "uint256"
            },
            {
              "internalType": "bool",
              "name": "sold",
              "type": "bool"
            }
          ],
          "internalType": "struct MusicMarketPlace.MarketItem[]",
          "name": "",
          "type": "tuple[]"
        }
      ],
      "stateMutability": "view",
      "type": "function"
    },
    {
      "inputs": [],
      "name": "fetchMarketItems",
      "outputs": [
        {
          "components": [
            {
              "internalType": "uint256",
              "name": "tokenId",
              "type": "uint256"
            },
            {
              "internalType": "address payable",
              "name": "seller",
              "type": "address"
            },
            {
              "internalType": "address payable",
              "name": "owner",
              "type": "address"
            },
            {
              "internalType": "uint256",
              "name": "price",
              "type": "uint256"
            },
            {
              "internalType": "bool",
              "name": "sold",
              "type": "bool"
            }
          ],
          "internalType": "struct MusicMarketPlace.MarketItem[]",
          "name": "",
          "type": "tuple[]"
        }
      ],
      "stateMutability": "view",
      "type": "function"
    },
    {
      "inputs": [],
      "name": "fetchMyNFTs",
      "outputs": [
        {
          "components": [
            {
              "internalType": "uint256",
              "name": "tokenId",
              "type": "uint256"
            },
            {
              "internalType": "address payable",
              "name": "seller",
              "type": "address"
            },
            {
              "internalType": "address payable",
              "name": "owner",
              "type": "address"
            },
            {
              "internalType": "uint256",
              "name": "price",
              "type": "uint256"
            },
            {
              "internalType": "bool",
              "name": "sold",
              "type": "bool"
            }
          ],
          "internalType": "struct MusicMarketPlace.MarketItem[]",
          "name": "",
          "type": "tuple[]"
        }
      ],
      "stateMutability": "view",
      "type": "function"
    },
    {
      "inputs": [],
      "name": "fetchMySoldItems",
      "outputs": [
        {
          "components": [
            {
              "internalType": "uint256",
              "name": "tokenId",
              "type": "uint256"
            },
            {
              "internalType": "address payable",
              "name": "seller",
              "type": "address"
            },
            {
              "internalType": "address payable",
              "name": "owner",
              "type": "address"
            },
            {
              "internalType": "uint256",
              "name": "price",
              "type": "uint256"
            },
            {
              "internalType": "bool",
              "name": "sold",
              "type": "bool"
            }
          ],
          "internalType": "struct MusicMarketPlace.MarketItem[]",
          "name": "",
          "type": "tuple[]"
        }
      ],
      "stateMutability": "view",
      "type": "function"
    },
    {
      "inputs": [
        {
          "internalType": "uint256",
          "name": "tokenId",
          "type": "uint256"
        }
      ],
      "name": "getApproved",
      "outputs": [
        {
          "internalType": "address",
          "name": "",
          "type": "address"
        }
      ],
      "stateMutability": "view",
      "type": "function"
    },
    {
      "inputs": [],
      "name": "getListingPrice",
      "outputs": [
        {
          "internalType": "uint256",
          "name": "",
          "type": "uint256"
        }
      ],
      "stateMutability": "view",
      "type": "function"
    },
    {
      "inputs": [
        {
          "internalType": "address",
          "name": "owner",
          "type": "address"
        },
        {
          "internalType": "address",
          "name": "operator",
          "type": "address"
        }
      ],
      "name": "isApprovedForAll",
      "outputs": [
        {
          "internalType": "bool",
          "name": "",
          "type": "bool"
        }
      ],
      "stateMutability": "view",
      "type": "function"
    },
    {
      "inputs": [],
      "name": "name",
      "outputs": [
        {
          "internalType": "string",
          "name": "",
          "type": "string"
        }
      ],
      "stateMutability": "view",
      "type": "function"
    },
    {
      "inputs": [
        {
          "internalType": "uint256",
          "name": "tokenId",
          "type": "uint256"
        }
      ],
      "name": "ownerOf",
      "outputs": [
        {
          "internalType": "address",
          "name": "",
          "type": "address"
        }
      ],
      "stateMutability": "view",
      "type": "function"
    },
    {
      "inputs": [
        {
          "internalType": "uint256",
          "name": "tokenId",
          "type": "uint256"
        },
        {
          "internalType": "uint256",
          "name": "price",
          "type": "uint256"
        }
      ],
      "name": "resellToken",
      "outputs": [],
      "stateMutability": "payable",
      "type": "function"
    },
    {
      "inputs": [
        {
          "internalType": "address",
          "name": "from",
          "type": "address"
        },
        {
          "internalType": "address",
          "name": "to",
          "type": "address"
        },
        {
          "internalType": "uint256",
          "name": "tokenId",
          "type": "uint256"
        }
      ],
      "name": "safeTransferFrom",
      "outputs": [],
      "stateMutability": "nonpayable",
      "type": "function"
    },
    {
      "inputs": [
        {
          "internalType": "address",
          "name": "from",
          "type": "address"
        },
        {
          "internalType": "address",
          "name": "to",
          "type": "address"
        },
        {
          "internalType": "uint256",
          "name": "tokenId",
          "type": "uint256"
        },
        {
          "internalType": "bytes",
          "name": "data",
          "type": "bytes"
        }
      ],
      "name": "safeTransferFrom",
      "outputs": [],
      "stateMutability": "nonpayable",
      "type": "function"
    },
    {
      "inputs": [
        {
          "internalType": "address",
          "name": "operator",
          "type": "address"
        },
        {
          "internalType": "bool",
          "name": "approved",
          "type": "bool"
        }
      ],
      "name": "setApprovalForAll",
      "outputs": [],
      "stateMutability": "nonpayable",
      "type": "function"
    },
    {
      "inputs": [
        {
          "internalType": "bytes4",
          "name": "interfaceId",
          "type": "bytes4"
        }
      ],
      "name": "supportsInterface",
      "outputs": [
        {
          "internalType": "bool",
          "name": "",
          "type": "bool"
        }
      ],
      "stateMutability": "view",
      "type": "function"
    },
    {
      "inputs": [],
      "name": "symbol",
      "outputs": [
        {
          "internalType": "string",
          "name": "",
          "type": "string"
        }
      ],
      "stateMutability": "view",
      "type": "function"
    },
    {
      "inputs": [
        {
          "internalType": "uint256",
          "name": "tokenId",
          "type": "uint256"
        }
      ],
      "name": "tokenURI",
      "outputs": [
        {
          "internalType": "string",
          "name": "",
          "type": "string"
        }
      ],
      "stateMutability": "view",
      "type": "function"
    },
    {
      "inputs": [
        {
          "internalType": "address",
          "name": "from",
          "type": "address"
        },
        {
          "internalType": "address",
          "name": "to",
          "type": "address"
        },
        {
          "internalType": "uint256",
          "name": "tokenId",
          "type": "uint256"
        }
      ],
      "name": "transferFrom",
      "outputs": [],
      "stateMutability": "nonpayable",
      "type": "function"
    },
    {
      "inputs": [
        {
          "internalType": "uint256",
          "name": "_listingPrice",
          "type": "uint256"
        }
      ],
      "name": "updateListingPrice",
      "outputs": [],
      "stateMutability": "payable",
      "type": "function"
    }
  ],
  "bytecode": "0x6080604052662386f26fc100006009553480156200001c57600080fd5b506040518060400160405280601081526020016f626c6f634d7573696320546f6b656e7360801b8152506040518060400160405280600381526020016210935560ea1b815250816000908162000073919062000142565b50600162000082828262000142565b5050600a80546001600160a01b03191633179055506200020e565b634e487b7160e01b600052604160045260246000fd5b600181811c90821680620000c857607f821691505b602082108103620000e957634e487b7160e01b600052602260045260246000fd5b50919050565b601f8211156200013d57600081815260208120601f850160051c81016020861015620001185750805b601f850160051c820191505b81811015620001395782815560010162000124565b5050505b505050565b81516001600160401b038111156200015e576200015e6200009d565b62000176816200016f8454620000b3565b84620000ef565b602080601f831160018114620001ae5760008415620001955750858301515b600019600386901b1c1916600185901b17855562000139565b600085815260208120601f198616915b82811015620001df57888601518255948401946001909101908401620001be565b5085821015620001fe5787850151600019600388901b60f8161c191681555b5050505050600190811b01905550565b612559806200021e6000396000f3fe6080604052600436106101355760003560e01c80636eff94d5116100ab578063ae677aa31161006f578063ae677aa314610333578063b88d4fde14610346578063be9af53614610366578063c87b56dd14610379578063e219fc7514610399578063e985e9c5146103ac57600080fd5b80636eff94d5146102b657806370a08231146102cb57806372b3b620146102eb57806395d89b41146102fe578063a22cb4651461031357600080fd5b806312e85585116100fd57806312e855851461020d578063202e37401461022c57806323b872dd1461024157806342842e0e1461026157806345f8fa80146102815780636352211e1461029657600080fd5b806301ffc9a71461013a57806306fdde031461016f578063081812fc14610191578063095ea7b3146101c95780630f08efe0146101eb575b600080fd5b34801561014657600080fd5b5061015a610155366004611e1b565b6103f5565b60405190151581526020015b60405180910390f35b34801561017b57600080fd5b50610184610447565b6040516101669190611e88565b34801561019d57600080fd5b506101b16101ac366004611e9b565b6104d9565b6040516001600160a01b039091168152602001610166565b3480156101d557600080fd5b506101e96101e4366004611ed0565b610500565b005b3480156101f757600080fd5b5061020061061a565b6040516101669190611efa565b34801561021957600080fd5b506009545b604051908152602001610166565b34801561023857600080fd5b50610200610791565b34801561024d57600080fd5b506101e961025c366004611f76565b610945565b34801561026d57600080fd5b506101e961027c366004611f76565b610976565b34801561028d57600080fd5b50610200610991565b3480156102a257600080fd5b506101b16102b1366004611e9b565b610b45565b3480156102c257600080fd5b50610200610ba5565b3480156102d757600080fd5b5061021e6102e6366004611fb2565b610dd4565b61021e6102f9366004612059565b610e5a565b34801561030a57600080fd5b50610184610e9c565b34801561031f57600080fd5b506101e961032e3660046120b2565b610eab565b6101e9610341366004611e9b565b610eba565b34801561035257600080fd5b506101e96103613660046120ee565b610f32565b6101e9610374366004611e9b565b610f6a565b34801561038557600080fd5b50610184610394366004611e9b565b6110cf565b6101e96103a736600461216a565b6111df565b3480156103b857600080fd5b5061015a6103c736600461218c565b6001600160a01b03918216600090815260056020908152604080832093909416825291909152205460ff1690565b60006001600160e01b031982166380ac58cd60e01b148061042657506001600160e01b03198216635b5e139f60e01b145b8061044157506301ffc9a760e01b6001600160e01b03198316145b92915050565b606060008054610456906121bf565b80601f0160208091040260200160405190810160405280929190818152602001828054610482906121bf565b80156104cf5780601f106104a4576101008083540402835291602001916104cf565b820191906000526020600020905b8154815290600101906020018083116104b257829003601f168201915b5050505050905090565b60006104e4826112d7565b506000908152600460205260409020546001600160a01b031690565b600061050b82610b45565b9050806001600160a01b0316836001600160a01b03160361057d5760405162461bcd60e51b815260206004820152602160248201527f4552433732313a20617070726f76616c20746f2063757272656e74206f776e656044820152603960f91b60648201526084015b60405180910390fd5b336001600160a01b0382161480610599575061059981336103c7565b61060b5760405162461bcd60e51b815260206004820152603d60248201527f4552433732313a20617070726f76652063616c6c6572206973206e6f7420746f60448201527f6b656e206f776e6572206f7220617070726f76656420666f7220616c6c0000006064820152608401610574565b6106158383611339565b505050565b6060600061062760075490565b9050600061063460085490565b600754610641919061220f565b90506000808267ffffffffffffffff81111561065f5761065f611fcd565b60405190808252806020026020018201604052801561069857816020015b610685611dd7565b81526020019060019003908161067d5790505b50905060005b848110156107885730600b60006106b6846001612222565b81526020810191909152604001600020600201546001600160a01b0316036107765760006106e5826001612222565b6000818152600b6020908152604091829020825160a0810184528154815260018201546001600160a01b039081169382019390935260028201549092169282019290925260038201546060820152600482015460ff16151560808201528551929350909185908790811061075b5761075b612235565b6020908102919091010152610771600186612222565b945050505b806107808161224b565b91505061069e565b50949350505050565b6060600061079e60075490565b905060008060005b838110156108005733600b60006107be846001612222565b81526020810191909152604001600020600201546001600160a01b0316036107ee576107eb600184612222565b92505b806107f88161224b565b9150506107a6565b5060008267ffffffffffffffff81111561081c5761081c611fcd565b60405190808252806020026020018201604052801561085557816020015b610842611dd7565b81526020019060019003908161083a5790505b50905060005b848110156107885733600b6000610873846001612222565b81526020810191909152604001600020600201546001600160a01b0316036109335760006108a2826001612222565b6000818152600b6020908152604091829020825160a0810184528154815260018201546001600160a01b039081169382019390935260028201549092169282019290925260038201546060820152600482015460ff16151560808201528551929350909185908790811061091857610918612235565b602090810291909101015261092e600186612222565b945050505b8061093d8161224b565b91505061085b565b61094f33826113a7565b61096b5760405162461bcd60e51b815260040161057490612264565b610615838383611425565b61061583838360405180602001604052806000815250610f32565b6060600061099e60075490565b905060008060005b83811015610a005733600b60006109be846001612222565b81526020810191909152604001600020600101546001600160a01b0316036109ee576109eb600184612222565b92505b806109f88161224b565b9150506109a6565b5060008267ffffffffffffffff811115610a1c57610a1c611fcd565b604051908082528060200260200182016040528015610a5557816020015b610a42611dd7565b815260200190600190039081610a3a5790505b50905060005b848110156107885733600b6000610a73846001612222565b81526020810191909152604001600020600101546001600160a01b031603610b33576000610aa2826001612222565b6000818152600b6020908152604091829020825160a0810184528154815260018201546001600160a01b039081169382019390935260028201549092169282019290925260038201546060820152600482015460ff161515608082015285519293509091859087908110610b1857610b18612235565b6020908102919091010152610b2e600186612222565b945050505b80610b3d8161224b565b915050610a5b565b6000818152600260205260408120546001600160a01b0316806104415760405162461bcd60e51b8152602060048201526018602482015277115490cdcc8c4e881a5b9d985b1a59081d1bdad95b88125160421b6044820152606401610574565b60606000610bb260075490565b905060008060005b83811015610c485733600b6000610bd2846001612222565b81526020810191909152604001600020600201546001600160a01b0316148015610c235750600b6000610c06836001612222565b815260208101919091526040016000206004015460ff1615156001145b15610c3657610c33600184612222565b92505b80610c408161224b565b915050610bba565b5060008267ffffffffffffffff811115610c6457610c64611fcd565b604051908082528060200260200182016040528015610c9d57816020015b610c8a611dd7565b815260200190600190039081610c825790505b50905060005b848110156107885733600b6000610cbb846001612222565b81526020810191909152604001600020600201546001600160a01b0316148015610d0c5750600b6000610cef836001612222565b815260208101919091526040016000206004015460ff1615156001145b15610dc2576000600b81610d21846001612222565b81526020808201929092526040908101600090812054808252600b845290829020825160a0810184528154815260018201546001600160a01b039081169582019590955260028201549094169284019290925260038201546060840152600482015460ff16151560808401528551909350909190859087908110610da757610da7612235565b6020908102919091010152610dbd600186612222565b945050505b80610dcc8161224b565b915050610ca3565b60006001600160a01b038216610e3e5760405162461bcd60e51b815260206004820152602960248201527f4552433732313a2061646472657373207a65726f206973206e6f7420612076616044820152683634b21037bbb732b960b91b6064820152608401610574565b506001600160a01b031660009081526003602052604090205490565b6000610e6a600780546001019055565b6000610e7560075490565b9050610e813382611596565b610e8b818561172f565b610e9581846117c2565b9392505050565b606060018054610456906121bf565b610eb6338383611918565b5050565b600a546001600160a01b03163314610f2d5760405162461bcd60e51b815260206004820152603060248201527f4f6e6c79206d61726b6574706c616365206f776e65722063616e20757064617460448201526f32903634b9ba34b73390383934b1b29760811b6064820152608401610574565b600955565b610f3c33836113a7565b610f585760405162461bcd60e51b815260040161057490612264565b610f64848484846119e6565b50505050565b6000818152600b6020526040902060038101546001909101546001600160a01b0316348214611003576040805162461bcd60e51b81526020600482015260248101919091527f506c65617365207375626d6974207468652061736b696e67207072696365206960448201527f6e206f7264657220746f20636f6d706c657465207468652070757263686173656064820152608401610574565b6000838152600b602052604090206002810180546001600160a01b0319908116331790915560048201805460ff1916600190811790915590910180549091169055611052600880546001019055565b61105d303385611425565b600a546009546040516001600160a01b039092169181156108fc0291906000818181858888f19350505050158015611099573d6000803e3d6000fd5b506040516001600160a01b038216903480156108fc02916000818181858888f19350505050158015610f64573d6000803e3d6000fd5b60606110da826112d7565b600082815260066020526040812080546110f3906121bf565b80601f016020809104026020016040519081016040528092919081815260200182805461111f906121bf565b801561116c5780601f106111415761010080835404028352916020019161116c565b820191906000526020600020905b81548152906001019060200180831161114f57829003601f168201915b50505050509050600061118a60408051602081019091526000815290565b9050805160000361119c575092915050565b8151156111ce5780826040516020016111b69291906122b1565b60405160208183030381529060405292505050919050565b6111d784611a19565b949350505050565b6000828152600b60205260409020600201546001600160a01b0316331461125b5760405162461bcd60e51b815260206004820152602a60248201527f4f6e6c79206974656d206f776e65722063616e20706572666f726d20746869736044820152691037b832b930ba34b7b760b11b6064820152608401610574565b600954341461127c5760405162461bcd60e51b8152600401610574906122e0565b6000828152600b6020526040902060048101805460ff19169055600381018290556001810180546001600160a01b0319908116331790915560029091018054909116301790556112cc6008611a8c565b610eb6333084611425565b6000818152600260205260409020546001600160a01b03166113365760405162461bcd60e51b8152602060048201526018602482015277115490cdcc8c4e881a5b9d985b1a59081d1bdad95b88125160421b6044820152606401610574565b50565b600081815260046020526040902080546001600160a01b0319166001600160a01b038416908117909155819061136e82610b45565b6001600160a01b03167f8c5be1e5ebec7d5bd14f71427d1e84f3dd0314c0f7b2291e5b200ac8c7c3b92560405160405180910390a45050565b6000806113b383610b45565b9050806001600160a01b0316846001600160a01b031614806113fa57506001600160a01b0380821660009081526005602090815260408083209388168352929052205460ff165b806111d75750836001600160a01b0316611413846104d9565b6001600160a01b031614949350505050565b826001600160a01b031661143882610b45565b6001600160a01b03161461145e5760405162461bcd60e51b815260040161057490612324565b6001600160a01b0382166114c05760405162461bcd60e51b8152602060048201526024808201527f4552433732313a207472616e7366657220746f20746865207a65726f206164646044820152637265737360e01b6064820152608401610574565b6114cd8383836001611ae3565b826001600160a01b03166114e082610b45565b6001600160a01b0316146115065760405162461bcd60e51b815260040161057490612324565b600081815260046020908152604080832080546001600160a01b03199081169091556001600160a01b0387811680865260038552838620805460001901905590871680865283862080546001019055868652600290945282852080549092168417909155905184937fddf252ad1be2c89b69c2b068fc378daa952ba7f163c4a11628f55a4df523b3ef91a4505050565b6001600160a01b0382166115ec5760405162461bcd60e51b815260206004820181905260248201527f4552433732313a206d696e7420746f20746865207a65726f20616464726573736044820152606401610574565b6000818152600260205260409020546001600160a01b0316156116515760405162461bcd60e51b815260206004820152601c60248201527f4552433732313a20746f6b656e20616c7265616479206d696e746564000000006044820152606401610574565b61165f600083836001611ae3565b6000818152600260205260409020546001600160a01b0316156116c45760405162461bcd60e51b815260206004820152601c60248201527f4552433732313a20746f6b656e20616c7265616479206d696e746564000000006044820152606401610574565b6001600160a01b038216600081815260036020908152604080832080546001019055848352600290915280822080546001600160a01b0319168417905551839291907fddf252ad1be2c89b69c2b068fc378daa952ba7f163c4a11628f55a4df523b3ef908290a45050565b6000828152600260205260409020546001600160a01b03166117aa5760405162461bcd60e51b815260206004820152602e60248201527f45524337323155524953746f726167653a2055524920736574206f66206e6f6e60448201526d32bc34b9ba32b73a103a37b5b2b760911b6064820152608401610574565b600082815260066020526040902061061582826123b7565b600081116118125760405162461bcd60e51b815260206004820152601c60248201527f5072696365206d757374206265206174206c65617374203120776569000000006044820152606401610574565b60095434146118335760405162461bcd60e51b8152600401610574906122e0565b6040805160a08101825283815233602080830182815230848601818152606086018881526000608088018181528b8252600b909652979097209551865591516001860180546001600160a01b03199081166001600160a01b0393841617909155925160028701805490941691161790915593516003840155516004909201805460ff1916921515929092179091556118cb9184611425565b604080513381523060208201529081018290526000606082015282907fb640004f1d14576d0c209e240cad0410e0d8c0c33a09375861fbadae2588a98d9060800160405180910390a25050565b816001600160a01b0316836001600160a01b0316036119795760405162461bcd60e51b815260206004820152601960248201527f4552433732313a20617070726f766520746f2063616c6c6572000000000000006044820152606401610574565b6001600160a01b03838116600081815260056020908152604080832094871680845294825291829020805460ff191686151590811790915591519182527f17307eab39ab6107e8899845ad3d59bd9653f200f220920489ca2b5937696c31910160405180910390a3505050565b6119f1848484611425565b6119fd84848484611b6b565b610f645760405162461bcd60e51b815260040161057490612477565b6060611a24826112d7565b6000611a3b60408051602081019091526000815290565b90506000815111611a5b5760405180602001604052806000815250610e95565b80611a6584611c6c565b604051602001611a769291906122b1565b6040516020818303038152906040529392505050565b805480611adb5760405162461bcd60e51b815260206004820152601b60248201527f436f756e7465723a2064656372656d656e74206f766572666c6f7700000000006044820152606401610574565b600019019055565b6001811115610f64576001600160a01b03841615611b29576001600160a01b03841660009081526003602052604081208054839290611b2390849061220f565b90915550505b6001600160a01b03831615610f64576001600160a01b03831660009081526003602052604081208054839290611b60908490612222565b909155505050505050565b60006001600160a01b0384163b15611c6157604051630a85bd0160e11b81526001600160a01b0385169063150b7a0290611baf9033908990889088906004016124c9565b6020604051808303816000875af1925050508015611bea575060408051601f3d908101601f19168201909252611be791810190612506565b60015b611c47573d808015611c18576040519150601f19603f3d011682016040523d82523d6000602084013e611c1d565b606091505b508051600003611c3f5760405162461bcd60e51b815260040161057490612477565b805181602001fd5b6001600160e01b031916630a85bd0160e11b1490506111d7565b506001949350505050565b60606000611c7983611cff565b600101905060008167ffffffffffffffff811115611c9957611c99611fcd565b6040519080825280601f01601f191660200182016040528015611cc3576020820181803683370190505b5090508181016020015b600019016f181899199a1a9b1b9c1cb0b131b232b360811b600a86061a8153600a8504945084611ccd57509392505050565b60008072184f03e93ff9f4daa797ed6e38ed64bf6a1f0160401b8310611d3e5772184f03e93ff9f4daa797ed6e38ed64bf6a1f0160401b830492506040015b6d04ee2d6d415b85acef81000000008310611d6a576d04ee2d6d415b85acef8100000000830492506020015b662386f26fc100008310611d8857662386f26fc10000830492506010015b6305f5e1008310611da0576305f5e100830492506008015b6127108310611db457612710830492506004015b60648310611dc6576064830492506002015b600a83106104415760010192915050565b6040805160a08101825260008082526020820181905291810182905260608101829052608081019190915290565b6001600160e01b03198116811461133657600080fd5b600060208284031215611e2d57600080fd5b8135610e9581611e05565b60005b83811015611e53578181015183820152602001611e3b565b50506000910152565b60008151808452611e74816020860160208601611e38565b601f01601f19169290920160200192915050565b602081526000610e956020830184611e5c565b600060208284031215611ead57600080fd5b5035919050565b80356001600160a01b0381168114611ecb57600080fd5b919050565b60008060408385031215611ee357600080fd5b611eec83611eb4565b946020939093013593505050565b602080825282518282018190526000919060409081850190868401855b82811015611f6957815180518552868101516001600160a01b03908116888701528682015116868601526060808201519086015260809081015115159085015260a09093019290850190600101611f17565b5091979650505050505050565b600080600060608486031215611f8b57600080fd5b611f9484611eb4565b9250611fa260208501611eb4565b9150604084013590509250925092565b600060208284031215611fc457600080fd5b610e9582611eb4565b634e487b7160e01b600052604160045260246000fd5b600067ffffffffffffffff80841115611ffe57611ffe611fcd565b604051601f8501601f19908116603f0116810190828211818310171561202657612026611fcd565b8160405280935085815286868601111561203f57600080fd5b858560208301376000602087830101525050509392505050565b6000806040838503121561206c57600080fd5b823567ffffffffffffffff81111561208357600080fd5b8301601f8101851361209457600080fd5b6120a385823560208401611fe3565b95602094909401359450505050565b600080604083850312156120c557600080fd5b6120ce83611eb4565b9150602083013580151581146120e357600080fd5b809150509250929050565b6000806000806080858703121561210457600080fd5b61210d85611eb4565b935061211b60208601611eb4565b925060408501359150606085013567ffffffffffffffff81111561213e57600080fd5b8501601f8101871361214f57600080fd5b61215e87823560208401611fe3565b91505092959194509250565b6000806040838503121561217d57600080fd5b50508035926020909101359150565b6000806040838503121561219f57600080fd5b6121a883611eb4565b91506121b660208401611eb4565b90509250929050565b600181811c908216806121d357607f821691505b6020821081036121f357634e487b7160e01b600052602260045260246000fd5b50919050565b634e487b7160e01b600052601160045260246000fd5b81810381811115610441576104416121f9565b80820180821115610441576104416121f9565b634e487b7160e01b600052603260045260246000fd5b60006001820161225d5761225d6121f9565b5060010190565b6020808252602d908201527f4552433732313a2063616c6c6572206973206e6f7420746f6b656e206f776e6560408201526c1c881bdc88185c1c1c9bdd9959609a1b606082015260800190565b600083516122c3818460208801611e38565b8351908301906122d7818360208801611e38565b01949350505050565b60208082526024908201527f5072696365206d75737420626520657175616c20746f206c697374696e6720706040820152637269636560e01b606082015260800190565b60208082526025908201527f4552433732313a207472616e736665722066726f6d20696e636f72726563742060408201526437bbb732b960d91b606082015260800190565b601f82111561061557600081815260208120601f850160051c810160208610156123905750805b601f850160051c820191505b818110156123af5782815560010161239c565b505050505050565b815167ffffffffffffffff8111156123d1576123d1611fcd565b6123e5816123df84546121bf565b84612369565b602080601f83116001811461241a57600084156124025750858301515b600019600386901b1c1916600185901b1785556123af565b600085815260208120601f198616915b828110156124495788860151825594840194600190910190840161242a565b50858210156124675787850151600019600388901b60f8161c191681555b5050505050600190811b01905550565b60208082526032908201527f4552433732313a207472616e7366657220746f206e6f6e20455243373231526560408201527131b2b4bb32b91034b6b83632b6b2b73a32b960711b606082015260800190565b6001600160a01b03858116825284166020820152604081018390526080606082018190526000906124fc90830184611e5c565b9695505050505050565b60006020828403121561251857600080fd5b8151610e9581611e0556fea26469706673582212208c906d95cc8796c9cc33f11dd68e045e206edbab6306d1967aa4ce617f69297364736f6c63430008110033",
  "linkReferences": {},
  "deployedLinkReferences": {}
}