{
  "_format": "hh-sol-artifact-1",
  "contractName": "MarketPlace",
  "sourceName": "contracts/MarketPlace.sol",
  "abi": [
    {
      "inputs": [],
      "stateMutability": "nonpayable",
      "type": "constructor"
    },
    {
      "anonymous": false,
      "inputs": [
        {
          "indexed": true,
          "internalType": "uint256",
          "name": "itemId",
          "type": "uint256"
        },
        {
          "indexed": true,
          "internalType": "address",
          "name": "nftContract",
          "type": "address"
        },
        {
          "indexed": true,
          "internalType": "uint256",
          "name": "tokenId",
          "type": "uint256"
        },
        {
          "indexed": false,
          "internalType": "address",
          "name": "seller",
          "type": "address"
        },
        {
          "indexed": false,
          "internalType": "address",
          "name": "owner",
          "type": "address"
        },
        {
          "indexed": false,
          "internalType": "uint256",
          "name": "price",
          "type": "uint256"
        },
        {
          "indexed": false,
          "internalType": "bool",
          "name": "sold",
          "type": "bool"
        }
      ],
      "name": "MarketItemCreated",
      "type": "event"
    },
    {
      "anonymous": false,
      "inputs": [
        {
          "indexed": true,
          "internalType": "uint256",
          "name": "itemId",
          "type": "uint256"
        }
      ],
      "name": "ProductListed",
      "type": "event"
    },
    {
      "inputs": [
        {
          "internalType": "address",
          "name": "nftContract",
          "type": "address"
        },
        {
          "internalType": "uint256",
          "name": "tokenId",
          "type": "uint256"
        },
        {
          "internalType": "uint256",
          "name": "price",
          "type": "uint256"
        }
      ],
      "name": "createMarketItem",
      "outputs": [],
      "stateMutability": "payable",
      "type": "function"
    },
    {
      "inputs": [
        {
          "internalType": "address",
          "name": "nftContract",
          "type": "address"
        },
        {
          "internalType": "uint256",
          "name": "itemId",
          "type": "uint256"
        }
      ],
      "name": "createMarketSale",
      "outputs": [],
      "stateMutability": "payable",
      "type": "function"
    },
    {
      "inputs": [],
      "name": "fetchItemsCreated",
      "outputs": [
        {
          "components": [
            {
              "internalType": "uint256",
              "name": "itemId",
              "type": "uint256"
            },
            {
              "internalType": "address",
              "name": "nftContract",
              "type": "address"
            },
            {
              "internalType": "uint256",
              "name": "tokenId",
              "type": "uint256"
            },
            {
              "internalType": "address payable",
              "name": "seller",
              "type": "address"
            },
            {
              "internalType": "address payable",
              "name": "owner",
              "type": "address"
            },
            {
              "internalType": "uint256",
              "name": "price",
              "type": "uint256"
            },
            {
              "internalType": "bool",
              "name": "sold",
              "type": "bool"
            }
          ],
          "internalType": "struct MarketPlace.MarketItem[]",
          "name": "",
          "type": "tuple[]"
        }
      ],
      "stateMutability": "view",
      "type": "function"
    },
    {
      "inputs": [],
      "name": "fetchMarketItems",
      "outputs": [
        {
          "components": [
            {
              "internalType": "uint256",
              "name": "itemId",
              "type": "uint256"
            },
            {
              "internalType": "address",
              "name": "nftContract",
              "type": "address"
            },
            {
              "internalType": "uint256",
              "name": "tokenId",
              "type": "uint256"
            },
            {
              "internalType": "address payable",
              "name": "seller",
              "type": "address"
            },
            {
              "internalType": "address payable",
              "name": "owner",
              "type": "address"
            },
            {
              "internalType": "uint256",
              "name": "price",
              "type": "uint256"
            },
            {
              "internalType": "bool",
              "name": "sold",
              "type": "bool"
            }
          ],
          "internalType": "struct MarketPlace.MarketItem[]",
          "name": "",
          "type": "tuple[]"
        }
      ],
      "stateMutability": "view",
      "type": "function"
    },
    {
      "inputs": [],
      "name": "fetchMyNFTs",
      "outputs": [
        {
          "components": [
            {
              "internalType": "uint256",
              "name": "itemId",
              "type": "uint256"
            },
            {
              "internalType": "address",
              "name": "nftContract",
              "type": "address"
            },
            {
              "internalType": "uint256",
              "name": "tokenId",
              "type": "uint256"
            },
            {
              "internalType": "address payable",
              "name": "seller",
              "type": "address"
            },
            {
              "internalType": "address payable",
              "name": "owner",
              "type": "address"
            },
            {
              "internalType": "uint256",
              "name": "price",
              "type": "uint256"
            },
            {
              "internalType": "bool",
              "name": "sold",
              "type": "bool"
            }
          ],
          "internalType": "struct MarketPlace.MarketItem[]",
          "name": "",
          "type": "tuple[]"
        }
      ],
      "stateMutability": "view",
      "type": "function"
    },
    {
      "inputs": [
        {
          "internalType": "uint256",
          "name": "providedId",
          "type": "uint256"
        }
      ],
      "name": "fetchSpecificItem",
      "outputs": [
        {
          "internalType": "uint256",
          "name": "value",
          "type": "uint256"
        }
      ],
      "stateMutability": "view",
      "type": "function"
    },
    {
      "inputs": [],
      "name": "getListingPrice",
      "outputs": [
        {
          "internalType": "uint256",
          "name": "",
          "type": "uint256"
        }
      ],
      "stateMutability": "view",
      "type": "function"
    },
    {
      "inputs": [
        {
          "internalType": "address",
          "name": "nftContract",
          "type": "address"
        },
        {
          "internalType": "uint256",
          "name": "itemId",
          "type": "uint256"
        },
        {
          "internalType": "uint256",
          "name": "newPrice",
          "type": "uint256"
        }
      ],
      "name": "putItemToResell",
      "outputs": [],
      "stateMutability": "payable",
      "type": "function"
    },
    {
      "inputs": [
        {
          "internalType": "address",
          "name": "nftContract",
          "type": "address"
        },
        {
          "internalType": "uint256",
          "name": "tokenId",
          "type": "uint256"
        },
        {
          "internalType": "uint256",
          "name": "price",
          "type": "uint256"
        }
      ],
      "name": "sellMarketItem",
      "outputs": [],
      "stateMutability": "payable",
      "type": "function"
    },
    {
      "inputs": [
        {
          "internalType": "address",
          "name": "nftContract",
          "type": "address"
        },
        {
          "internalType": "uint256",
          "name": "itemId",
          "type": "uint256"
        }
      ],
      "name": "transferFrom",
      "outputs": [],
      "stateMutability": "payable",
      "type": "function"
    }
  ],
  "bytecode": "0x608060405266038d7ea4c6800060045534801561001b57600080fd5b506001600055600380546001600160a01b0319163317905561106e806100426000396000f3fe6080604052600436106100915760003560e01c806358eb2df51161005957806358eb2df51461011d5780635cd91d6c14610130578063619c19ac14610143578063c23b139e14610164578063f064c32e1461017757600080fd5b806301c6adc3146100965780630f08efe0146100ab57806312e85585146100d6578063202e3740146100f557806358271fff1461010a575b600080fd5b6100a96100a4366004610e08565b61018c565b005b3480156100b757600080fd5b506100c061023d565b6040516100cd9190610e32565b60405180910390f35b3480156100e257600080fd5b506004545b6040519081526020016100cd565b34801561010157600080fd5b506100c06103c8565b6100a9610118366004610ec6565b610590565b6100a961012b366004610ec6565b610767565b6100a961013e366004610ec6565b610944565b34801561014f57600080fd5b506100e761015e366004610ef9565b50600190565b6100a9610172366004610e08565b61096c565b34801561018357600080fd5b506100c0610b38565b610194610d00565b600081815260056020526040908190206002810154600480830180546001600160a01b031916309081179091556006909301805460ff1916905592516323b872dd60e01b815290926001600160a01b038616926323b872dd926101fc92339291879101610f12565b600060405180830381600087803b15801561021657600080fd5b505af115801561022a573d6000803e3d6000fd5b50505050506102396001600055565b5050565b6060600061024a60015490565b9050600061025760025490565b6001546102649190610f4c565b90506000808267ffffffffffffffff81111561028257610282610f65565b6040519080825280602002602001820160405280156102bb57816020015b6102a8610db0565b8152602001906001900390816102a05790505b50905060005b848110156103bf5760006005816102d9846001610f7b565b81526020810191909152604001600020600401546001600160a01b0316036103ad576000610308826001610f7b565b600081815260056020818152604092839020835160e0810185528154815260018201546001600160a01b0390811693820193909352600282015494810194909452600381015482166060850152600481015490911660808401529081015460a0830152600681015460ff16151560c083015285519293509185908790811061039257610392610f8e565b60209081029190910101526103a8600186610f7b565b945050505b806103b781610fa4565b9150506102c1565b50949350505050565b606060006103d560015490565b905060008060005b838110156104375733600560006103f5846001610f7b565b81526020810191909152604001600020600401546001600160a01b03160361042557610422600184610f7b565b92505b8061042f81610fa4565b9150506103dd565b5060008267ffffffffffffffff81111561045357610453610f65565b60405190808252806020026020018201604052801561048c57816020015b610479610db0565b8152602001906001900390816104715790505b50905060005b848110156103bf5733600560006104aa846001610f7b565b81526020810191909152604001600020600401546001600160a01b03160361057e5760006104d9826001610f7b565b600081815260056020818152604092839020835160e0810185528154815260018201546001600160a01b0390811693820193909352600282015494810194909452600381015482166060850152600481015490911660808401529081015460a0830152600681015460ff16151560c083015285519293509185908790811061056357610563610f8e565b6020908102919091010152610579600186610f7b565b945050505b8061058881610fa4565b915050610492565b610598610d00565b60008281526005602052604090206004015482906001600160a01b031633146106195760405162461bcd60e51b815260206004820152602860248201527f4f6e6c792070726f64756374206f776e65722063616e20646f2074686973206f6044820152673832b930ba34b7b760c11b60648201526084015b60405180910390fd5b600083815260056020526040902060020154826106485760405162461bcd60e51b815260040161061090610fbd565b60045434146106695760405162461bcd60e51b815260040161061090610ff4565b604051637aa9bf6f60e11b815285906001600160a01b0382169063f5537ede9061069b90339030908790600401610f12565b600060405180830381600087803b1580156106b557600080fd5b505af11580156106c9573d6000803e3d6000fd5b50505060008681526005602081905260409091206004810180546001600160a01b03198082169092556003830180549092166001600160a01b03909116908117909155918101879055600601805460ff1916905590506107296002610d59565b60405186907f221866c21613d6f0d77d42f9309b122a25deed1bc186cff9c2f1ddafc52c34f690600090a2505050506107626001600055565b505050565b61076f610d00565b6000811161078f5760405162461bcd60e51b815260040161061090610fbd565b60045434146107b05760405162461bcd60e51b815260040161061090610ff4565b6107be600180546001019055565b60006107c960015490565b6040805160e0810182528281526001600160a01b0387811660208084018281528486018a8152336060870181815260006080890181815260a08a018e815260c08b018381528d8452600598899052928c90209a518b55955160018b0180546001600160a01b0319908116928c16929092179055945160028b0155915160038a0180548616918a1691909117905590516004808a018054909516919098161790925591519286019290925590516006909401805460ff19169415159490941790935592516323b872dd60e01b815293945091926323b872dd926108b092913091899101610f12565b600060405180830381600087803b1580156108ca57600080fd5b505af11580156108de573d6000803e3d6000fd5b505060408051338152600060208201819052818301879052606082015290518693506001600160a01b038816925084917f045dfa01dcba2b36aba1d3dc4a874f4b0c5d2fbeb8d2c4b34a7d88c8d8f929d1919081900360800190a4506107626001600055565b61094c610d00565b600081116107b05760405162461bcd60e51b815260040161061090610fbd565b610974610d00565b600081815260056020819052604090912090810154600290910154348214610a06576040805162461bcd60e51b81526020600482015260248101919091527f506c65617365207375626d6974207468652061736b696e67207072696365206960448201527f6e206f7264657220746f20636f6d706c657465207468652070757263686173656064820152608401610610565b6000838152600560205260408082206003015490516001600160a01b03909116913480156108fc02929091818181858888f19350505050158015610a4e573d6000803e3d6000fd5b506040516323b872dd60e01b81526001600160a01b038516906323b872dd90610a7f90309033908690600401610f12565b600060405180830381600087803b158015610a9957600080fd5b505af1158015610aad573d6000803e3d6000fd5b50505060008481526005602052604090206004810180546001600160a01b03191633179055600601805460ff1916600117905550610aef600280546001019055565b6003546004546040516001600160a01b039092169181156108fc0291906000818181858888f19350505050158015610b2b573d6000803e3d6000fd5b5050506102396001600055565b60606000610b4560015490565b905060008060005b83811015610ba7573360056000610b65846001610f7b565b81526020810191909152604001600020600301546001600160a01b031603610b9557610b92600184610f7b565b92505b80610b9f81610fa4565b915050610b4d565b5060008267ffffffffffffffff811115610bc357610bc3610f65565b604051908082528060200260200182016040528015610bfc57816020015b610be9610db0565b815260200190600190039081610be15790505b50905060005b848110156103bf573360056000610c1a846001610f7b565b81526020810191909152604001600020600301546001600160a01b031603610cee576000610c49826001610f7b565b600081815260056020818152604092839020835160e0810185528154815260018201546001600160a01b0390811693820193909352600282015494810194909452600381015482166060850152600481015490911660808401529081015460a0830152600681015460ff16151560c0830152855192935091859087908110610cd357610cd3610f8e565b6020908102919091010152610ce9600186610f7b565b945050505b80610cf881610fa4565b915050610c02565b600260005403610d525760405162461bcd60e51b815260206004820152601f60248201527f5265656e7472616e637947756172643a207265656e7472616e742063616c6c006044820152606401610610565b6002600055565b805480610da85760405162461bcd60e51b815260206004820152601b60248201527f436f756e7465723a2064656372656d656e74206f766572666c6f7700000000006044820152606401610610565b600019019055565b6040805160e081018252600080825260208201819052918101829052606081018290526080810182905260a0810182905260c081019190915290565b80356001600160a01b0381168114610e0357600080fd5b919050565b60008060408385031215610e1b57600080fd5b610e2483610dec565b946020939093013593505050565b602080825282518282018190526000919060409081850190868401855b82811015610eb957815180518552868101516001600160a01b039081168887015286820151878701526060808301518216908701526080808301519091169086015260a0808201519086015260c09081015115159085015260e09093019290850190600101610e4f565b5091979650505050505050565b600080600060608486031215610edb57600080fd5b610ee484610dec565b95602085013595506040909401359392505050565b600060208284031215610f0b57600080fd5b5035919050565b6001600160a01b039384168152919092166020820152604081019190915260600190565b634e487b7160e01b600052601160045260246000fd5b81810381811115610f5f57610f5f610f36565b92915050565b634e487b7160e01b600052604160045260246000fd5b80820180821115610f5f57610f5f610f36565b634e487b7160e01b600052603260045260246000fd5b600060018201610fb657610fb6610f36565b5060010190565b6020808252601c908201527f5072696365206d757374206265206174206c6561737420312077656900000000604082015260600190565b60208082526024908201527f5072696365206d75737420626520657175616c20746f206c697374696e6720706040820152637269636560e01b60608201526080019056fea26469706673582212209c511d21380304b17c06b12e7905ae3c739673e31f1720ac3da6c70b72a4041964736f6c63430008110033",
  "linkReferences": {},
  "deployedLinkReferences": {}
}