{
  "_format": "hh-sol-artifact-1",
  "contractName": "MarketPlace",
  "sourceName": "contracts/MarketPlace.sol",
  "abi": [
    {
      "inputs": [],
      "stateMutability": "nonpayable",
      "type": "constructor"
    },
    {
      "anonymous": false,
      "inputs": [
        {
          "indexed": true,
          "internalType": "uint256",
          "name": "itemId",
          "type": "uint256"
        },
        {
          "indexed": true,
          "internalType": "address",
          "name": "nftContract",
          "type": "address"
        },
        {
          "indexed": true,
          "internalType": "uint256",
          "name": "tokenId",
          "type": "uint256"
        },
        {
          "indexed": false,
          "internalType": "address",
          "name": "seller",
          "type": "address"
        },
        {
          "indexed": false,
          "internalType": "address",
          "name": "owner",
          "type": "address"
        },
        {
          "indexed": false,
          "internalType": "uint256",
          "name": "price",
          "type": "uint256"
        },
        {
          "indexed": false,
          "internalType": "bool",
          "name": "sold",
          "type": "bool"
        }
      ],
      "name": "MarketItemCreated",
      "type": "event"
    },
    {
      "anonymous": false,
      "inputs": [
        {
          "indexed": true,
          "internalType": "uint256",
          "name": "itemId",
          "type": "uint256"
        }
      ],
      "name": "ProductListed",
      "type": "event"
    },
    {
      "inputs": [
        {
          "internalType": "address",
          "name": "nftContract",
          "type": "address"
        },
        {
          "internalType": "uint256",
          "name": "tokenId",
          "type": "uint256"
        },
        {
          "internalType": "uint256",
          "name": "price",
          "type": "uint256"
        }
      ],
      "name": "createMarketItem",
      "outputs": [],
      "stateMutability": "payable",
      "type": "function"
    },
    {
      "inputs": [
        {
          "internalType": "address",
          "name": "nftContract",
          "type": "address"
        },
        {
          "internalType": "uint256",
          "name": "itemId",
          "type": "uint256"
        }
      ],
      "name": "createMarketSale",
      "outputs": [],
      "stateMutability": "payable",
      "type": "function"
    },
    {
      "inputs": [],
      "name": "fetchItemsCreated",
      "outputs": [
        {
          "components": [
            {
              "internalType": "uint256",
              "name": "itemId",
              "type": "uint256"
            },
            {
              "internalType": "address",
              "name": "nftContract",
              "type": "address"
            },
            {
              "internalType": "uint256",
              "name": "tokenId",
              "type": "uint256"
            },
            {
              "internalType": "address payable",
              "name": "seller",
              "type": "address"
            },
            {
              "internalType": "address payable",
              "name": "owner",
              "type": "address"
            },
            {
              "internalType": "uint256",
              "name": "price",
              "type": "uint256"
            },
            {
              "internalType": "bool",
              "name": "sold",
              "type": "bool"
            }
          ],
          "internalType": "struct MarketPlace.MarketItem[]",
          "name": "",
          "type": "tuple[]"
        }
      ],
      "stateMutability": "view",
      "type": "function"
    },
    {
      "inputs": [],
      "name": "fetchMarketItems",
      "outputs": [
        {
          "components": [
            {
              "internalType": "uint256",
              "name": "itemId",
              "type": "uint256"
            },
            {
              "internalType": "address",
              "name": "nftContract",
              "type": "address"
            },
            {
              "internalType": "uint256",
              "name": "tokenId",
              "type": "uint256"
            },
            {
              "internalType": "address payable",
              "name": "seller",
              "type": "address"
            },
            {
              "internalType": "address payable",
              "name": "owner",
              "type": "address"
            },
            {
              "internalType": "uint256",
              "name": "price",
              "type": "uint256"
            },
            {
              "internalType": "bool",
              "name": "sold",
              "type": "bool"
            }
          ],
          "internalType": "struct MarketPlace.MarketItem[]",
          "name": "",
          "type": "tuple[]"
        }
      ],
      "stateMutability": "view",
      "type": "function"
    },
    {
      "inputs": [],
      "name": "fetchMyNFTs",
      "outputs": [
        {
          "components": [
            {
              "internalType": "uint256",
              "name": "itemId",
              "type": "uint256"
            },
            {
              "internalType": "address",
              "name": "nftContract",
              "type": "address"
            },
            {
              "internalType": "uint256",
              "name": "tokenId",
              "type": "uint256"
            },
            {
              "internalType": "address payable",
              "name": "seller",
              "type": "address"
            },
            {
              "internalType": "address payable",
              "name": "owner",
              "type": "address"
            },
            {
              "internalType": "uint256",
              "name": "price",
              "type": "uint256"
            },
            {
              "internalType": "bool",
              "name": "sold",
              "type": "bool"
            }
          ],
          "internalType": "struct MarketPlace.MarketItem[]",
          "name": "",
          "type": "tuple[]"
        }
      ],
      "stateMutability": "view",
      "type": "function"
    },
    {
      "inputs": [],
      "name": "getListingPrice",
      "outputs": [
        {
          "internalType": "uint256",
          "name": "",
          "type": "uint256"
        }
      ],
      "stateMutability": "view",
      "type": "function"
    },
    {
      "inputs": [
        {
          "internalType": "address",
          "name": "nftContract",
          "type": "address"
        },
        {
          "internalType": "uint256",
          "name": "itemId",
          "type": "uint256"
        },
        {
          "internalType": "uint256",
          "name": "newPrice",
          "type": "uint256"
        }
      ],
      "name": "putItemToResell",
      "outputs": [],
      "stateMutability": "payable",
      "type": "function"
    },
    {
      "inputs": [
        {
          "internalType": "address",
          "name": "nftContract",
          "type": "address"
        },
        {
          "internalType": "uint256",
          "name": "tokenId",
          "type": "uint256"
        },
        {
          "internalType": "uint256",
          "name": "price",
          "type": "uint256"
        }
      ],
      "name": "sellMarketItem",
      "outputs": [],
      "stateMutability": "payable",
      "type": "function"
    },
    {
      "inputs": [
        {
          "internalType": "address",
          "name": "nftContract",
          "type": "address"
        },
        {
          "internalType": "uint256",
          "name": "itemId",
          "type": "uint256"
        }
      ],
      "name": "transferFrom",
      "outputs": [],
      "stateMutability": "payable",
      "type": "function"
    }
  ],
  "bytecode": "0x608060405266038d7ea4c6800060045534801561001b57600080fd5b506001600055600380546001600160a01b03191633179055611028806100426000396000f3fe6080604052600436106100865760003560e01c806358271fff1161005957806358271fff146100fe57806358eb2df5146101115780635cd91d6c14610124578063c23b139e14610137578063f064c32e1461014a57600080fd5b806301c6adc31461008b5780630f08efe0146100a057806312e85585146100cb578063202e3740146100e9575b600080fd5b61009e610099366004610ddb565b61015f565b005b3480156100ac57600080fd5b506100b5610210565b6040516100c29190610e05565b60405180910390f35b3480156100d757600080fd5b506004546040519081526020016100c2565b3480156100f557600080fd5b506100b561039b565b61009e61010c366004610e99565b610563565b61009e61011f366004610e99565b61073a565b61009e610132366004610e99565b610917565b61009e610145366004610ddb565b61093f565b34801561015657600080fd5b506100b5610b0b565b610167610cd3565b600081815260056020526040908190206002810154600480830180546001600160a01b031916309081179091556006909301805460ff1916905592516323b872dd60e01b815290926001600160a01b038616926323b872dd926101cf92339291879101610ecc565b600060405180830381600087803b1580156101e957600080fd5b505af11580156101fd573d6000803e3d6000fd5b505050505061020c6001600055565b5050565b6060600061021d60015490565b9050600061022a60025490565b6001546102379190610f06565b90506000808267ffffffffffffffff81111561025557610255610f1f565b60405190808252806020026020018201604052801561028e57816020015b61027b610d83565b8152602001906001900390816102735790505b50905060005b848110156103925760006005816102ac846001610f35565b81526020810191909152604001600020600401546001600160a01b0316036103805760006102db826001610f35565b600081815260056020818152604092839020835160e0810185528154815260018201546001600160a01b0390811693820193909352600282015494810194909452600381015482166060850152600481015490911660808401529081015460a0830152600681015460ff16151560c083015285519293509185908790811061036557610365610f48565b602090810291909101015261037b600186610f35565b945050505b8061038a81610f5e565b915050610294565b50949350505050565b606060006103a860015490565b905060008060005b8381101561040a5733600560006103c8846001610f35565b81526020810191909152604001600020600401546001600160a01b0316036103f8576103f5600184610f35565b92505b8061040281610f5e565b9150506103b0565b5060008267ffffffffffffffff81111561042657610426610f1f565b60405190808252806020026020018201604052801561045f57816020015b61044c610d83565b8152602001906001900390816104445790505b50905060005b8481101561039257336005600061047d846001610f35565b81526020810191909152604001600020600401546001600160a01b0316036105515760006104ac826001610f35565b600081815260056020818152604092839020835160e0810185528154815260018201546001600160a01b0390811693820193909352600282015494810194909452600381015482166060850152600481015490911660808401529081015460a0830152600681015460ff16151560c083015285519293509185908790811061053657610536610f48565b602090810291909101015261054c600186610f35565b945050505b8061055b81610f5e565b915050610465565b61056b610cd3565b60008281526005602052604090206004015482906001600160a01b031633146105ec5760405162461bcd60e51b815260206004820152602860248201527f4f6e6c792070726f64756374206f776e65722063616e20646f2074686973206f6044820152673832b930ba34b7b760c11b60648201526084015b60405180910390fd5b6000838152600560205260409020600201548261061b5760405162461bcd60e51b81526004016105e390610f77565b600454341461063c5760405162461bcd60e51b81526004016105e390610fae565b604051637aa9bf6f60e11b815285906001600160a01b0382169063f5537ede9061066e90339030908790600401610ecc565b600060405180830381600087803b15801561068857600080fd5b505af115801561069c573d6000803e3d6000fd5b50505060008681526005602081905260409091206004810180546001600160a01b03198082169092556003830180549092166001600160a01b03909116908117909155918101879055600601805460ff1916905590506106fc6002610d2c565b60405186907f221866c21613d6f0d77d42f9309b122a25deed1bc186cff9c2f1ddafc52c34f690600090a2505050506107356001600055565b505050565b610742610cd3565b600081116107625760405162461bcd60e51b81526004016105e390610f77565b60045434146107835760405162461bcd60e51b81526004016105e390610fae565b610791600180546001019055565b600061079c60015490565b6040805160e0810182528281526001600160a01b0387811660208084018281528486018a8152336060870181815260006080890181815260a08a018e815260c08b018381528d8452600598899052928c90209a518b55955160018b0180546001600160a01b0319908116928c16929092179055945160028b0155915160038a0180548616918a1691909117905590516004808a018054909516919098161790925591519286019290925590516006909401805460ff19169415159490941790935592516323b872dd60e01b815293945091926323b872dd9261088392913091899101610ecc565b600060405180830381600087803b15801561089d57600080fd5b505af11580156108b1573d6000803e3d6000fd5b505060408051338152600060208201819052818301879052606082015290518693506001600160a01b038816925084917f045dfa01dcba2b36aba1d3dc4a874f4b0c5d2fbeb8d2c4b34a7d88c8d8f929d1919081900360800190a4506107356001600055565b61091f610cd3565b600081116107835760405162461bcd60e51b81526004016105e390610f77565b610947610cd3565b6000818152600560208190526040909120908101546002909101543482146109d9576040805162461bcd60e51b81526020600482015260248101919091527f506c65617365207375626d6974207468652061736b696e67207072696365206960448201527f6e206f7264657220746f20636f6d706c6574652074686520707572636861736560648201526084016105e3565b6000838152600560205260408082206003015490516001600160a01b03909116913480156108fc02929091818181858888f19350505050158015610a21573d6000803e3d6000fd5b506040516323b872dd60e01b81526001600160a01b038516906323b872dd90610a5290309033908690600401610ecc565b600060405180830381600087803b158015610a6c57600080fd5b505af1158015610a80573d6000803e3d6000fd5b50505060008481526005602052604090206004810180546001600160a01b03191633179055600601805460ff1916600117905550610ac2600280546001019055565b6003546004546040516001600160a01b039092169181156108fc0291906000818181858888f19350505050158015610afe573d6000803e3d6000fd5b50505061020c6001600055565b60606000610b1860015490565b905060008060005b83811015610b7a573360056000610b38846001610f35565b81526020810191909152604001600020600301546001600160a01b031603610b6857610b65600184610f35565b92505b80610b7281610f5e565b915050610b20565b5060008267ffffffffffffffff811115610b9657610b96610f1f565b604051908082528060200260200182016040528015610bcf57816020015b610bbc610d83565b815260200190600190039081610bb45790505b50905060005b84811015610392573360056000610bed846001610f35565b81526020810191909152604001600020600301546001600160a01b031603610cc1576000610c1c826001610f35565b600081815260056020818152604092839020835160e0810185528154815260018201546001600160a01b0390811693820193909352600282015494810194909452600381015482166060850152600481015490911660808401529081015460a0830152600681015460ff16151560c0830152855192935091859087908110610ca657610ca6610f48565b6020908102919091010152610cbc600186610f35565b945050505b80610ccb81610f5e565b915050610bd5565b600260005403610d255760405162461bcd60e51b815260206004820152601f60248201527f5265656e7472616e637947756172643a207265656e7472616e742063616c6c0060448201526064016105e3565b6002600055565b805480610d7b5760405162461bcd60e51b815260206004820152601b60248201527f436f756e7465723a2064656372656d656e74206f766572666c6f77000000000060448201526064016105e3565b600019019055565b6040805160e081018252600080825260208201819052918101829052606081018290526080810182905260a0810182905260c081019190915290565b80356001600160a01b0381168114610dd657600080fd5b919050565b60008060408385031215610dee57600080fd5b610df783610dbf565b946020939093013593505050565b602080825282518282018190526000919060409081850190868401855b82811015610e8c57815180518552868101516001600160a01b039081168887015286820151878701526060808301518216908701526080808301519091169086015260a0808201519086015260c09081015115159085015260e09093019290850190600101610e22565b5091979650505050505050565b600080600060608486031215610eae57600080fd5b610eb784610dbf565b95602085013595506040909401359392505050565b6001600160a01b039384168152919092166020820152604081019190915260600190565b634e487b7160e01b600052601160045260246000fd5b81810381811115610f1957610f19610ef0565b92915050565b634e487b7160e01b600052604160045260246000fd5b80820180821115610f1957610f19610ef0565b634e487b7160e01b600052603260045260246000fd5b600060018201610f7057610f70610ef0565b5060010190565b6020808252601c908201527f5072696365206d757374206265206174206c6561737420312077656900000000604082015260600190565b60208082526024908201527f5072696365206d75737420626520657175616c20746f206c697374696e6720706040820152637269636560e01b60608201526080019056fea264697066735822122027f8374b64d2247b1b6be2382f74610355415b3bf72f20bc7de06baad18b01be64736f6c63430008110033",
  "linkReferences": {},
  "deployedLinkReferences": {}
}